:020000040000FA
:0400000063EF00F0BA
:100018000F80D8CF01F0E8CF02F0E0CF03F0FACF9D
:1000280004F0FBCF05F0D9CF06F0DACF07F09DA892
:1000380020EF00F022EF00F038EF00F09EA827EF45
:1000480000F029EF00F038EF00F002D836EF00F0AA
:100058000500FA6E0101A551FD6EA651FE6EFF6AFC
:10006800FA50120053EF00F09DAA3DEF00F03FEF69
:1000780000F053EF00F09EAA44EF00F046EF00F0C6
:1000880053EF00F002D853EF00F00500FA6E0101BB
:10009800A351FD6EA451FE6EFF6AFA50120007C00C
:1000A800DAFF06C0D9FF05C0FBFF04C0FAFF03C092
:1000B800E0FF02C0E8FF01C0D8FF0F90100072EF08
:1000C80032F004007DEC33F05F0E00019E6FFE0EEF
:1000D8009F6F80EC2CF0070E0201226F020E82EC5B
:1000E8002DF0F50E00019E6FFF0E9F6F80EC2CF037
:1000F800B9EC33F0CFEC24F001012A512B112C116B
:100108002D11D8A48AEF00F08CEF00F0B2EF00F0C8
:100118007DEC33F0E60E00019E6FFE0E9F6F80ECC3
:100128002CF0010E0201226F020E82EC2DF0F60E69
:1001380000019E6FFE0E9F6F80EC2CF0C0EC33F038
:10014800110E0001C56F3C0EC46FCB0EE82EFED712
:10015800C42FFCD7C52FFAD765EF00F02D512C110D
:100168002B1107E1290E2A5DD8B0BDEF00F0BFEFD3
:1001780000F017EF01F02AC19EF02BC19FF02CC1AF
:10018800A0F02DC1A1F00C0E0001A26F000EA36F0C
:10019800000EA46F000EA56FB9EC2DF00A0E000139
:1001A8009E25A66F000E9F21A76F000EA021A86FA5
:1001B800000EA121A96FE7EC2FF0A6C00CF2A7C092
:1001C8000DF2A8C00EF2A9C00FF202010C510D11D8
:1001D8000E110F11D8B4F3EF00F0F5EF00F0FFEFB8
:1001E80000F02AC118F22BC119F22CC11AF22DC144
:1001F8001BF22FEF01F07DEC33F0E60E00019E6F4D
:10020800FE0E9F6F80EC2CF0010E0201226F020E91
:1002180082EC2DF0160E00019E6FFF0E9F6F80EC92
:100228002CF0A2EF00F07DEC33F0E80E00019E6F99
:10023800FD0E9F6F80EC2CF0010E0201226F020E62
:1002480082EC2DF04F0E00019E6FFD0E9F6F80EC2B
:100258002CF0A4EF00F004007DEC33F0930E0201C3
:10026800066FFF0E076F18C208F219C209F21AC208
:100278000AF21BC20BF29FEC32F0C0EC33F0020121
:100288001B511A11191109E1290E185DD8A04FEF59
:1002980001F051EF01F069EF01F07DEC33F0E80E69
:1002A80000019E6FFD0E9F6F80EC2CF0010E020185
:1002B800226F020E82EC2DF04F0E00019E6FFD0E94
:1002C8009F6F80EC2CF0A4EF00F0000E00019F6FF0
:1002D800050E9E6F000EA06F2FEC30F018C29EF036
:1002E80019C29FF01AC2A0F01BC2A1F00C0E0001A7
:1002F800A26F000EA36F000EA46F000EA56FB9ECDD
:100308002DF00A0E00019E25A66F000E9F21A76FF3
:10031800000EA021A86F000EA121A96FE7EC2FF015
:10032800A6C014F2A7C015F2A8C016F2A9C017F209
:10033800010E0201226F020E82EC2DF0B80E0201AE
:10034800066FFF0E076F14C208F215C209F216C233
:100358000AF217C20BF29FEC32F03CEC32F00101CA
:10036800306F000E266F000E276F000E286F000EEC
:10037800296FCCEC31F0AFC026F1B0C027F1B1C085
:1003880028F1B2C029F16DEF03F002011807000E41
:10039800195B1A5B1B5B185119111A111B11D8A490
:1003A800D8EF01F0DAEF01F08CEF03F026C118F274
:1003B80027C119F228C11AF229C11BF28CEF03F0E8
:1003C800010E02011827000E19231A231B2301010D
:1003D80026510201181913E10101275102011919C7
:1003E8000EE10101285102011A1909E101012951FF
:1003F80002011B19D8A403EF02F005EF02F08CEFFD
:1004080003F0010E186F000E196F000E1A6F000E20
:100418001B6F8CEF03F004007DEC33F0930E0201A8
:10042800066FFF0E076F18C208F219C209F21AC246
:100438000AF21BC20BF29FEC32F0010E0201226F8E
:10044800020E82EC2DF0DF0E00019E6FFF0E9F6FF3
:1004580080EC2CF0B9EC33F0CFEC24F001012A51F8
:100468002B112C112D11D8A43CEF02F03EEF02F015
:1004780040EF02F0DDEF02F0000E266F000E276F4E
:10048800000E286F000E296FCCEC31F0AFC026F1BA
:10049800B0C027F1B1C028F1B2C029F1000E0001A7
:1004A8009F6F050E9E6F000EA06F2FEC30F0000EB0
:1004B8000201106F000E116F000E126F000E136F05
:1004C800C7EF02F010C29EF011C29FF012C2A0F056
:1004D80013C2A1F00C0E0001A26F000EA36F000E54
:1004E800A46F000EA56FB9EC2DF00A0E00019E2531
:1004F800A66F000E9F21A76F000EA021A86F000E07
:10050800A121A96FE7EC2FF0A6C014F2A7C015F23D
:10051800A8C016F2A9C017F201012A510201141944
:1005280013E101012B51020115190EE101012C51B2
:100538000201161909E101012D5102011719D8A468
:10054800A8EF02F0AAEF02F0C1EF02F07DEC33F061
:10055800A30E00019E6FFE0E9F6F80EC2CF0110E13
:100568000001C56F3C0EC46FCB0EE82EFED7C42F1A
:10057800FCD7C52FFAD72FEF01F0010E1027000E78
:1005880011231223132310510101265D0201115179
:100598000101275902011251010128590201135181
:1005A80001012959D8B0DBEF02F0DDEF02F066EF68
:1005B80002F018C29EF019C29FF01AC2A0F01BC226
:1005C800A1F00C0E0001A26F000EA36F000EA46F25
:1005D800000EA56FB9EC2DF00A0E00019E25010151
:1005E8001A6F000E00019F2101011B6F000E000110
:1005F800A02101011C6F000E0001A12101011D6F46
:1006080018C29EF019C29FF01AC2A0F01BC2A1F036
:100618000C0E0001A26F000EA36F000EA46F000E57
:10062800A56FB9EC2DF00E0E00019E250101166F85
:10063800000E00019F210101176F000E0001A0218B
:100648000101186F000E0001A1210101196F1AC1E3
:10065800A1F01BC1A2F01CC1A3F01DC1A4F02AC1C6
:10066800A5F02BC1A6F02CC1A7F02DC1A8F058EC1D
:1006780031F016C1A1F017C1A2F018C1A3F019C139
:10068800A4F018C2A5F019C2A6F01AC2A7F01BC29E
:10069800A8F058EC31F07DEC33F0820E00019E6F2B
:1006A800FD0E9F6F80EC2CF00400C0EC33F0110EAF
:1006B8000001C56F3C0EC46FCB0EE82EFED7C42FC9
:1006C800FCD7C52FFAD78CEF03F008EF1FF08CEF9B
:1006D80003F0010130510001C46FC56BC551000A18
:1006E800D8B479EF03F08CEF03F0C451230AD8B4DF
:1006F8000FEF02F0090AD8B469EF03F01E0AD8B464
:10070800C9EF01F0020AD8B4E4EF01F08CEF03F06E
:1007180004007DEC33F0930E0201066FFF0E076FA5
:1007280018C208F219C209F21AC20AF21BC20BF265
:100738009FEC32F041EF01F01200040097EC33F027
:100748005F0E0201006FFE0E016FC3EC2CF0070E66
:100758000201006F020E25EC2EF0F50E0201006F6B
:10076800FF0E016FC3EC2CF0CEEC33F08AEC25F0D1
:1007780001012A512B112C112D11D8A4C6EF03F019
:10078800C8EF03F0EEEF03F097EC33F0E60E02014A
:10079800006FFE0E016FC3EC2CF0010E0201006F1A
:1007A800020E25EC2EF0F60E0201006FFE0E016F10
:1007B800C3EC2CF0D5EC33F0110E0001C56F3C0EE4
:1007C800C46FCB0EE82EFED7C42FFCD7C52FFAD79F
:1007D800A1EF03F02D512C112B1107E1290E2A5DF1
:1007E800D8B0F9EF03F0FBEF03F053EF04F02AC1A0
:1007F80000F22BC101F22CC102F22DC103F20C0E42
:100808000201046F000E056F000E066F000E076FE1
:10081800EFEC2DF00A0E02010025086F000E0121F1
:10082800096F000E02210A6F000E03210B6FC1EC45
:100838002FF008C210F209C211F20AC212F20BC25A
:1008480013F202011051111112111311D8B42FEF24
:1008580004F031EF04F03BEF04F02AC11CF22BC185
:100868001DF22CC11EF22DC11FF26BEF04F097ECA4
:1008780033F0E60E0201006FFE0E016FC3EC2CF0A0
:10088800010E0201006F020E25EC2EF0160E020179
:10089800006FFF0E016FC3EC2CF0DEEF03F097EC56
:1008A80033F0E80E0201006FFD0E016FC3EC2CF06F
:1008B800010E0201006F020E25EC2EF04F0E020110
:1008C800006FFD0E016FC3EC2CF0E0EF03F00400A5
:1008D80097EC33F0930E0201066FFF0E076F1CC2F0
:1008E80008F21DC209F21EC20AF21FC20BF2B4ECD2
:1008F80032F0D5EC33F002011F511E111D1109E130
:10090800290E1C5DD8A08BEF04F08DEF04F0A5EF45
:1009180004F097EC33F0E80E0201006FFD0E016F52
:10092800C3EC2CF0010E0201006F020E25EC2EF034
:100938004F0E0201006FFD0E016FC3EC2CF0E0EFCB
:1009480003F0000E016F050E006F000E026F98ECA9
:1009580030F01CC200F21DC201F21EC202F21FC218
:1009680003F20C0E0201046F000E056F000E066FF5
:10097800000E076FEFEC2DF00A0E02010025086F3C
:10098800000E0121096F000E02210A6F000E0321DB
:100998000B6FC1EC2FF008C218F209C219F20AC293
:1009A8001AF20BC21BF2010E0201006F020E25ECB7
:1009B8002EF0B80E0201066FFF0E076F18C208F27C
:1009C80019C209F21AC20AF21BC20BF2B4EC32F0D5
:1009D80057EC32F00101306F000E266F000E276FC2
:1009E800000E286F000E296F04EC32F00CC226F1BD
:1009F8000DC227F10EC228F10FC229F1A8EF06F0A7
:100A080002011C07000E1D5B1E5B1F5B1C511D11A4
:100A18001E111F11D8A413EF05F015EF05F0C7EF4D
:100A280006F026C11CF227C11DF228C11EF229C1F9
:100A38001FF2C7EF06F0010E02011C27000E1D234E
:100A48001E231F230101265102011C1913E1010174
:100A5800275102011D190EE10101285102011E1939
:100A680009E10101295102011F19D8A43EEF05F03F
:100A780040EF05F0C7EF06F0010E1C6F000E1D6F6A
:100A8800000E1E6F000E1F6FC7EF06F0040097ECF4
:100A980033F0930E0201066FFF0E076F1CC208F2B7
:100AA8001DC209F21EC20AF21FC20BF2B4EC32F0E8
:100AB800010E0201006F020E25EC2EF0DF0E02017E
:100AC800006FFF0E016FC3EC2CF0CEEC33F08AEC14
:100AD80025F001012A512B112C112D11D8A477EFE3
:100AE80005F079EF05F07BEF05F018EF06F0000E42
:100AF800266F000E276F000E286F000E296F04EC7A
:100B080032F00CC226F10DC227F10EC228F10FC235
:100B180029F1000E0201016F050E006F000E026F31
:100B280098EC30F0000E0201146F000E156F000EE5
:100B3800166F000E176F02EF06F014C200F215C20E
:100B480001F216C202F217C203F20C0E0201046F80
:100B5800000E056F000E066F000E076FEFEC2DF00C
:100B68000A0E02010025086F000E0121096F000E10
:100B780002210A6F000E03210B6FC1EC2FF008C28F
:100B880018F209C219F20AC21AF20BC21BF20101C9
:100B98002A510201181913E101012B5102011919F7
:100BA8000EE101012C5102011A1909E101012D512F
:100BB80002011B19D8A4E3EF05F0E5EF05F0FCEFFF
:100BC80005F097EC33F0A30E0201006FFE0E016FE3
:100BD800C3EC2CF0110E0001C56F3C0EC46FCB0E98
:100BE800E82EFED7C42FFCD7C52FFAD76BEF04F039
:100BF800010E1427000E1523162317231451010183
:100C0800265D020115510101275902011651010102
:100C180028590201175101012959D8B016EF06F0D9
:100C280018EF06F0A1EF05F01CC200F21DC201F298
:100C38001EC202F21FC203F20C0E0201046F000E64
:100C4800056F000E066F000E076FEFEC2DF00A0E11
:100C58000201002501011A6F000E020101210101A4
:100C68001B6F000E0201022101011C6F000E020120
:100C7800032101011D6F1CC200F21DC201F21EC238
:100C880002F21FC203F20C0E0201046F000E056F80
:100C9800000E066F000E076FEFEC2DF00E0E02012E
:100CA80000250101166F000E020101210101176FD5
:100CB800000E020102210101186F000E020103213A
:100CC8000101196F1AC103F21BC104F21CC105F21C
:100CD8001DC106F22AC107F22BC108F22CC109F284
:100CE8002DC10AF2AFEC31F016C103F217C104F2BC
:100CF80018C105F219C106F21CC207F21DC208F29A
:100D08001EC209F21FC20AF2AFEC31F097EC33F0C1
:100D1800820E0201006FFD0E016FC3EC2CF004007F
:100D2800D5EC33F0110E0001C56F3C0EC46FCB0E2D
:100D3800E82EFED7C42FFCD7C52FFAD7C7EF06F089
:100D480008EF1FF0C7EF06F0010130510001C46F32
:100D5800C56BC551000AD8B4B4EF06F0C7EF06F06A
:100D6800C451230AD8B44AEF05F0090AD8B4A4EF4D
:100D780006F01E0AD8B404EF05F0020AD8B41FEF33
:100D880005F0C7EF06F0040097EC33F0930E02016C
:100D9800066FFF0E076F1CC208F21DC209F21EC2C1
:100DA8000AF21FC20BF2B4EC32F07DEF04F012002D
:100DB8007DEC33F0600E00019E6FFE0E9F6F80EC9D
:100DC8002CF0070E0201226F020E82EC2DF0F50EB8
:100DD80000019E6FFF0E9F6F80EC2CF0B9EC33F092
:100DE800CFEC24F001012A512B112C112D11D8A47C
:100DF80000EF07F002EF07F028EF07F07DEC33F083
:100E0800E60E00019E6FFE0E9F6F80EC2CF0010E27
:100E18000201226F020E82EC2DF0F60E00019E6F89
:100E2800FE0E9F6F80EC2CF0C0EC33F0110E000129
:100E3800C56F3C0EC46FCB0EE82EFED7C42FFCD76F
:100E4800C52FFAD7DCEF06F02D512C112B1107E135
:100E5800280E2A5DD8B033EF07F035EF07F03FEFE3
:100E680007F02AC126F12BC127F12CC128F12DC189
:100E780029F157EF07F07DEC33F0E80E00019E6F83
:100E8800FD0E9F6F80EC2CF0010E0201226F020E06
:100E980082EC2DF04F0E00019E6FFD0E9F6F80ECCF
:100EA8002CF01AEF07F07DEC33F0AC0E0201066F60
:100EB800FF0E076F26C108F227C109F228C10AF2FE
:100EC80029C10BF29FEC32F0010E0201226F020ED3
:100ED80082EC2DF0CD0E00019E6FFF0E9F6F80EC0F
:100EE8002CF0CFEC24F001012A512B112C112D11DB
:100EF800D8A481EF07F083EF07F0E5EF07F0010EC4
:100F08002627000E272328232923295128112711B2
:100F180009E1290E265DD8A094EF07F096EF07F0B7
:100F2800B3EF07F02607000E275B285B295B7DECF3
:100F380033F0E80E00019E6FFD0E9F6F80EC2CF0E1
:100F4800010E0201226F020E82EC2DF04F0E0001FD
:100F58009E6FFD0E9F6F80EC2CF01AEF07F0CCEC23
:100F680031F0010126510001AF5D01012751000157
:100F7800B059010128510001B1590101295100015D
:100F8800B259D8B0CAEF07F0CCEF07F0D6EF07F0A8
:100F980026C1A9F027C1AAF028C1ABF029C1ACF03D
:100FA800C9EC32F0070E0001C56F170EC46F6A0E48
:100FB800E82EFED7C42FFCD7C52FFAD700F057EF7D
:100FC80007F0000E00019F6F050E9E6F000EA06FC8
:100FD8002FEC30F0000E02010C6F000E0D6F000EAA
:100FE8000E6F000E0F6F5AEF08F00CC29EF00DC284
:100FF8009FF00EC2A0F00FC2A1F00C0E0001A26F6C
:10100800000EA36F000EA46F000EA56FB9EC2DF0B3
:101018000A0E00019E25A66F000E9F21A76F000EE5
:10102800A021A86F000EA121A96FE7EC2FF0A6C0A0
:1010380010F2A7C011F2A8C012F2A9C013F2010160
:101048002A510201101913E101012B510201111952
:101058000EE101012C510201121909E101012D5182
:1010680002011319D8A43BEF08F03DEF08F054EF44
:1010780008F07DEC33F0A30E00019E6FFE0E9F6F0B
:1010880080EC2CF0110E0001C56F3C0EC46FCB0E26
:10109800E82EFED7C42FFCD7C52FFAD757EF07F095
:1010A800010E0C27000E0D230E230F230C510101F6
:1010B800265D02010D510101275902010E5101015E
:1010C800285902010F5101012959D8B06EEF08F0D3
:1010D80070EF08F0F9EF07F026C19EF027C19FF0E6
:1010E80028C1A0F029C1A1F00C0E0001A26F000ECA
:1010F800A36F000EA46F000EA56FB9EC2DF00A0EB9
:1011080000019E2501011A6F000E00019F210101B7
:101118001B6F000E0001A02101011C6F000E0001D1
:10112800A12101011D6F26C19EF027C19FF028C192
:10113800A0F029C1A1F00C0E0001A26F000EA36F50
:10114800000EA46F000EA56FB9EC2DF00E0E000175
:101158009E250101166F000E00019F210101176FE6
:10116800000E0001A0210101186F000E0001A1214D
:101178000101196F1AC1A1F01BC1A2F01CC1A3F093
:101188001DC1A4F02AC1A5F02BC1A6F02CC1A7F05F
:101198002DC1A8F058EC31F016C1A1F017C1A2F08A
:1011A80018C1A3F019C1A4F026C1A5F027C1A6F063
:1011B80028C1A7F029C1A8F058EC31F01AC1A6F04F
:1011C8001BC1A7F01CC1A8F01DC1A9F0E7EC2FF0C6
:1011D800A6C010F2A7C011F2A8C012F2A9C013F25B
:1011E8000201105101012A1915E1020111510101F1
:1011F8002B1910E10201125101012C190BE1020116
:10120800135101012D19D8B40CEF09F00EEF09F0B4
:1012180026EF09F07DEC33F0810E00019E6FFE0E83
:101228009F6F80EC2CF0060E0201226F020E82ECFA
:101238002DF0F80E00019E6FFF0E9F6F80EC2CF0D2
:1012480057EF07F0010E2627000E2723282329230E
:1012580029512811271109E1290E265DD8A037EF59
:1012680009F039EF09F056EF09F02607000E275B61
:10127800285B295B7DEC33F01B0E00019E6FFE0E90
:101288009F6F80EC2CF0010E0201226F020E82EC9F
:101298002DF00A0E00019E6FFE0E9F6F80EC2CF061
:1012A8001AEF07F0CCEC31F0010126510001AF5DD7
:1012B800010127510001B059010128510001B1591C
:1012C800010129510001B259D8B06DEF09F06FEF53
:1012D80009F079EF09F026C1A9F027C1AAF028C1C1
:1012E800ABF029C1ACF0C9EC32F0040057EF07F0BD
:1012F800120097EC33F0600E0201006FFE0E016FD2
:10130800C3EC2CF0070E0201006F020E25EC2EF044
:10131800F50E0201006FFF0E016FC3EC2CF0CEEC4E
:1013280033F08AEC25F001012A512B112C112D11D3
:10133800D8A4A1EF09F0A3EF09F0C9EF09F097ECE1
:1013480033F0E60E0201006FFE0E016FC3EC2CF0C5
:10135800010E0201006F020E25EC2EF0F60E0201BE
:10136800006FFE0E016FC3EC2CF0D5EC33F0110EBC
:101378000001C56F3C0EC46FCB0EE82EFED7C42FFC
:10138800FCD7C52FFAD77DEF09F02D512C112B1161
:1013980007E1280E2A5DD8B0D4EF09F0D6EF09F09E
:1013A800E0EF09F02AC126F12BC127F12CC128F161
:1013B8002DC129F1F8EF09F097EC33F0E80E02019E
:1013C800006FFD0E016FC3EC2CF0010E0201006FDF
:1013D800020E25EC2EF04F0E0201006FFD0E016F7C
:1013E800C3EC2CF0BBEF09F097EC33F0AC0E020124
:1013F800066FFF0E076F26C108F227C109F228C140
:101408000AF229C10BF2B4EC32F0010E0201006FAE
:10141800020E25EC2EF0CD0E0201006FFF0E016FBB
:10142800C3EC2CF08AEC25F001012A512B112C1168
:101438002D11D8A422EF0AF024EF0AF086EF0AF063
:10144800010E2627000E2723282329232951281196
:10145800271109E1290E265DD8A035EF0AF037EFEC
:101468000AF054EF0AF02607000E275B285B295B79
:1014780097EC33F0E80E0201006FFD0E016FC3EC2C
:101488002CF0010E0201006F020E25EC2EF04F0E1B
:101498000201006FFD0E016FC3EC2CF0BBEF09F0E9
:1014A80004EC32F00101265102010C5D01012751C3
:1014B80002010D590101285102010E59010129515A
:1014C80002010F59D8B06BEF0AF06DEF0AF077EF11
:1014D8000AF026C19EF027C19FF028C1A0F029C1BB
:1014E800A1F005EC33F0070E0001C56F170EC46FAD
:1014F8006A0EE82EFED7C42FFCD7C52FFAD700F006
:10150800F8EF09F0000E0201016F050E006F000EE2
:10151800026F98EC30F0000E0201106F000E116F90
:10152800000E126F000E136FFBEF0AF010C200F2EC
:1015380011C201F212C202F213C203F20C0E02012E
:10154800046F000E056F000E066F000E076FEFECBC
:101558002DF00A0E02010025086F000E0121096F07
:10156800000E02210A6F000E03210B6FC1EC2FF051
:1015780008C214F209C215F20AC216F20BC217F217
:1015880001012A510201141913E101012B51020131
:1015980015190EE101012C510201161909E1010189
:1015A8002D5102011719D8A4DCEF0AF0DEEF0AF07A
:1015B800F5EF0AF097EC33F0A30E0201006FFE0E70
:1015C800016FC3EC2CF0110E0001C56F3C0EC46F07
:1015D800CB0EE82EFED7C42FFCD7C52FFAD7F8EFCD
:1015E80009F0010E1027000E1123122313231051A6
:1015F8000101265D02011151010127590201125111
:10160800010128590201135101012959D8B00FEFDE
:101618000BF011EF0BF09AEF0AF026C100F227C188
:1016280001F228C102F229C103F20C0E0201046F73
:10163800000E056F000E066F000E076FEFEC2DF021
:101648000A0E0201002501011A6F000E0201012194
:1016580001011B6F000E0201022101011C6F000E27
:101668000201032101011D6F26C100F227C101F209
:1016780028C102F229C103F20C0E0201046F000E08
:10168800056F000E066F000E076FEFEC2DF00E0EC3
:10169800020100250101166F000E0201012101015E
:1016A800176F000E020102210101186F000E0201DE
:1016B80003210101196F1AC103F21BC104F21CC1F5
:1016C80005F21DC106F22AC107F22BC108F22CC18E
:1016D80009F22DC10AF2AFEC31F016C103F217C1BD
:1016E80004F218C105F219C106F226C107F227C192
:1016F80008F228C109F229C10AF2AFEC31F01AC187
:1017080008F21BC109F21CC10AF21DC10BF2C1EC9F
:101718002FF008C214F209C215F20AC216F20BC25F
:1017280017F20201145101012A1915E1020115519C
:1017380001012B1910E10201165101012C190BE1CD
:101748000201175101012D19D8B4ADEF0BF0AFEF1D
:101758000BF0C7EF0BF097EC33F0810E0201006F2E
:10176800FE0E016FC3EC2CF0060E0201006F020E94
:1017780025EC2EF0F80E0201006FFF0E016FC3EC8E
:101788002CF0F8EF09F0010E2627000E2723282356
:10179800292329512811271109E1290E265DD8A0EE
:1017A800D8EF0BF0DAEF0BF0F7EF0BF02607000E8F
:1017B800275B285B295B97EC33F01B0E0201006F57
:1017C800FE0E016FC3EC2CF0010E0201006F020E39
:1017D80025EC2EF00A0E0201006FFE0E016FC3EC1D
:1017E8002CF0BBEF09F004EC32F0010126510201A4
:1017F8000C5D0101275102010D5901012851020117
:101808000E590101295102010F59D8B00EEF0CF001
:1018180010EF0CF01AEF0CF026C19EF027C19FF0D4
:1018280028C1A0F029C1A1F005EC33F00400F8EFBD
:1018380009F01200050E0201266F0F0E256FF10E3A
:10184800E82EFED7252FFCD7262FFAD7040097ECD1
:1018580033F0760E0201006FFF0E016FC3EC2CF01F
:10186800010E0201006F020E25EC2EF0F10E0201AE
:10187800006FFF0E016FC3EC2CF0CEEC33F0000EBE
:101888000101326F070E32654CEF0CF04EEF0CF091
:1018980050EF0CF05BEF0CF05D0E3225D96EDA6A72
:1018A800010EDA22000EDF6E322B46EF0CF0010E2D
:1018B800326F070E316F99EC2FF00101306F230E54
:1018C8003019D8A46AEF0CF06CEF0CF073EF0CF041
:1018D8002A0E20EC32F00101312BF8EC1DF02A0E13
:1018E80001013019D8A47BEF0CF07DEF0CF081EFEB
:1018F8000CF01EEF0CF0D2EF0CF0312B30C15DF183
:101908005D5120EC32F004005D0E01013225D96EE4
:10191800DA6A010EDA2299EC2FF0DF6E5D0E010112
:101928003225D96EDA6A010EDA22230EDE18D8A41F
:10193800A0EF0CF0A2EF0CF0ACEF0CF05D0E32252E
:10194800D96EDA6A010EDA22000EDF6ED2EF0CF0E1
:101958005D0E3225D96EDA6A010EDA222A0EDE18F9
:10196800D8A4B9EF0CF0BBEF0CF0BDEF0CF01EEFF4
:101978000CF05D0E01013225D96EDA6A010EDA2209
:10198800DF5020EC32F00101322B312B070E32658B
:10199800D0EF0CF0D2EF0CF087EF0CF004005D0EE6
:1019A8000201046F010E056FAEEC21F0020104C2C2
:1019B8002AF105C22BF10101000E2BBFFF0E2C6F7F
:1019C8002D6F2A512B112C112D11D8A4EEEF0CF0EC
:1019D800F0EF0CF014EF0DF097EC33F0D70E020196
:1019E800006FFD0E016FC3EC2CF0010E0201006FB9
:1019F800020E25EC2EF0C60E0201006FFD0E016FDF
:101A0800C3EC2CF0110E0201266F3C0E256FCB0E95
:101A1800E82EFED7252FFCD7262FFAD71EEF0CF07D
:101A28000400000E0201016F050E006F000E026F28
:101A380098EC30F004EC32F00CC226F10DC227F11C
:101A48000EC228F10FC229F126C100F227C101F206
:101A580028C102F229C103F20C0E0201046F000E24
:101A6800056F000E066F000E076FEFEC2DF00A0EE3
:101A78000201002501011A6F000E02010121010176
:101A88001B6F000E0201022101011C6F000E0201F2
:101A9800032101011D6FD5EC33F0000E02012B6FFD
:101AA800000E2C6F000E2D6F000E2E6F39EF0EF00A
:101AB8002BC200F22CC201F22DC202F22EC203F296
:101AC8000C0E0201046F000E056F000E066F000E6B
:101AD800076FEFEC2DF00A0E02010025086F000ECB
:101AE8000121096F000E02210A6F000E03210B6FFE
:101AF800C1EC2FF008C227F209C228F20AC229F263
:101B08000BC22AF201012A510201271913E101012E
:101B18002B51020128190EE101012C51020129194A
:101B280009E101012D5102012A19D8A49EEF0DF0F7
:101B3800A0EF0DF032EF0EF0010E006F010E25EC54
:101B48002EF00A0E0201006FFD0E016FC3EC2CF09F
:101B58002BC200F22CC201F22DC202F22EC203F2F5
:101B68000C0E0201046F000E056F000E066F000ECA
:101B7800076FEFEC2DF00E0E02010025086F000E26
:101B88000121096F000E02210A6F000E03210B6F5D
:101B9800C1EC2FF008C21EF109C21FF10AC220F1E0
:101BA8000BC221F1410E2DEC33F0C80EE82EFED702
:101BB8000A0E2DEC33F0C80EE82EFED70D0E2DECD4
:101BC80033F0C80EE82EFED73D0E0201266FE10E57
:101BD800256F3F0EE82EFED7252FFCD7262FFAD7E4
:101BE80000D02BC200F22CC201F22DC202F22EC28A
:101BF80003F20C0E0201046F000E056F000E066F53
:101C0800000E076FEFEC2DF00E0E02010025086F95
:101C1800000E0121096F000E02210A6F000E032138
:101C28000B6FC1EC2FF008C21EF109C21FF10AC2E6
:101C380020F10BC221F1E80E0201066FFF0E076FBB
:101C480027C208F228C209F229C20AF22AC20BF2F4
:101C5800B4EC32F00400FF001EEF0CF0010E02019C
:101C68002B27000E2C232D232E232B510101265D1B
:101C780002012C510101275902012D510101285956
:101C880002012E5101012959D8B04DEF0EF04FEF46
:101C98000EF05CEF0DF0040097EC33F0B40E020187
:101CA800006FFE0E016FC3EC2CF0110E0201266FBF
:101CB8003C0E256FCB0EE82EFED7252FFCD7262FFE
:101CC800FAD71EEF0CF012007DEC33F0600E000125
:101CD8009E6FFD0E9F6F80EC2CF0010E0201226FAB
:101CE800020E82EC2DF0F90E00019E6FFD0E9F6F23
:101CF80080EC2CF03CEC32F0230AD8A486EF0EF0EE
:101D080088EF0EF07EEF0EF07DEC33F0D40E00017C
:101D18009E6FFC0E9F6F80EC2CF03CEC32F00101C2
:101D2800306F9BEF0EF008EF1FF091EF0EF030517F
:101D38000001C46FC56BC551000AD8B4A6EF0EF0F8
:101D480091EF0EF0C451230AD8B4B9EF0EF0090A86
:101D5800D8B497EF0EF01E0AD8B4C3EF0FF0020AFA
:101D6800D8B4F1EF0EF091EF0EF0000E02010C6FF7
:101D7800000E106F010E226F020E82EC2DF0C0ECE7
:101D880033F0930E0201066FFD0E076F010E10254A
:101D9800086F096B000E09239FEC32F00201102B2B
:101DA800030E1065DAEF0EF0DCEF0EF0BEEF0EF06A
:101DB8000C2B030E0C65E3EF0EF0E5EF0EF0BCEF15
:101DC8000EF0010E226F020E82EC2DF02D0E000196
:101DD8009E6FFD0E9F6F80EC2CF07DEC33F0790E3A
:101DE80000019E6FFC0E9F6F80EC2CF03CEC32F0F3
:101DF8000101306F04EF0FF008EF1FF022EF0FF032
:101E080030510001C46FC56BC551000AD8B40FEF3B
:101E18000FF0FAEF0EF0C451230AD8B422EF0FF0F6
:101E2800090AD8B400EF0FF01E0AD8B488EF0EF0F4
:101E3800020AD8B45AEF0FF0FAEF0EF0000E0201C2
:101E48000D6F040E116F010E226F020E82EC2DF041
:101E5800C0EC33F0930E0201066FFD0E076F010E02
:101E68001125086F096B000E09239FEC32F002015F
:101E7800112B0F0E116543EF0FF045EF0FF027EF11
:101E88000FF00D2B030E0D654CEF0FF04EEF0FF01A
:101E980025EF0FF0010E226F020E82EC2DF03E0EA0
:101EA80000019E6FFD0E9F6F80EC2CF07DEC33F0EF
:101EB800E60E00019E6FFC0E9F6F80EC2CF03CEC50
:101EC80032F00101306F6DEF0FF008EF1FF08BEF6C
:101ED8000FF030510001C46FC56BC551000AD8B46A
:101EE80078EF0FF063EF0FF0C451230AD8B45AEF1C
:101EF8000FF0090AD8B469EF0FF01E0AD8B4F1EF51
:101F08000EF0020AD8B4C3EF0FF063EF0FF0000E23
:101F180002010E6F100E126F010E226F020E82EC7C
:101F28002DF0C0EC33F0930E0201066FFD0E076F23
:101F3800010E1225086F096B000E09239FEC32F081
:101F48000201122B1B0E1265ACEF0FF0AEEF0FF073
:101F580090EF0FF00E2B030E0E65B5EF0FF0B7EFF5
:101F68000FF08EEF0FF0010E226F020E82EC2DF0B3
:101F7800B00E00019E6FFC0E9F6F80EC2CF07DEC84
:101F880033F0650E00019E6FFC0E9F6F80EC2CF005
:101F98003CEC32F00101306FD6EF0FF008EF1FF084
:101FA800F4EF0FF030510001C46FC56BC551000A42
:101FB800D8B4E1EF0FF0CCEF0FF0C451230AD8B436
:101FC800C3EF0FF0090AD8B4D2EF0FF01E0AD8B445
:101FD8005AEF0FF0020AD8B488EF0EF0CCEF0FF0EA
:101FE800000E02010F6F1C0E136F010E226F020EFE
:101FF80082EC2DF0C0EC33F0930E0201066FFD0E5B
:10200800076F010E1325086F096B000E09239FEC5B
:1020180032F00201132B270E136515EF10F017EF9E
:1020280010F0F9EF0FF00F2B030E0F651EEF10F0F5
:1020380020EF10F0F7EF0FF0010E226F020E82EC86
:102048002DF09E0E00019E6FFC0E9F6F80EC2CF011
:102058007DEC33F0460E00019E6FFF0E9F6F80EC03
:102068002CF0250E0001C56F870EC46F8B0EE82E6D
:10207800FED7C42FFCD7C52FFAD700D07DEC33F09C
:10208800360E00019E6FFF0E9F6F80EC2CF05CEF08
:1020980010F03CEC32F00101306F2A0E3019D8A450
:1020A80058EF10F05AEF10F05CEF10F008EF1FF047
:1020B8003CEC32F0230AD8A464EF10F066EF10F07D
:1020C8004DEF10F068EF0EF0120097EC33F0600E51
:1020D8000201006FFD0E016FC3EC2CF0010E02012E
:1020E800006F020E25EC2EF0F90E0201006FFD0EB6
:1020F800016FC3EC2CF057EC32F0230AD8A487EF19
:1021080010F089EF10F07FEF10F097EC33F0D40E59
:102118000201006FFC0E016FC3EC2CF057EC32F09B
:102128000101306F9CEF10F008EF1FF092EF10F0F4
:1021380030510001C46FC56BC551000AD8B4A7EF70
:1021480010F092EF10F0C451230AD8B4BAEF10F08F
:10215800090AD8B498EF10F01E0AD8B4C4EF11F0E9
:10216800020AD8B4F2EF10F092EF10F0000E02015C
:102178000C6F000E106F010E006F020E25EC2EF092
:10218800D5EC33F0930E0201066FFD0E076F010EBA
:102198001025086F096B000E0923B4EC32F0020118
:1021A800102B030E1065DBEF10F0DDEF10F0BFEF22
:1021B80010F00C2B030E0C65E4EF10F0E6EF10F0B6
:1021C800BDEF10F0010E006F020E25EC2EF02D0E63
:1021D8000201006FFD0E016FC3EC2CF097EC33F099
:1021E800790E0201006FFC0E016FC3EC2CF057EC66
:1021F80032F00101306F05EF11F008EF1FF023EF07
:1022080011F030510001C46FC56BC551000AD8B434
:1022180010EF11F0FBEF10F0C451230AD8B423EFEC
:1022280011F0090AD8B401EF11F01E0AD8B489EFE9
:1022380010F0020AD8B45BEF11F0FBEF10F0000EBB
:1022480002010D6F040E116F010E006F020E25ECD6
:102258002EF0D5EC33F0930E0201066FFD0E076FDA
:10226800010E1125086F096B000E0923B4EC32F03A
:102278000201112B0F0E116544EF11F046EF11F01A
:1022880028EF11F00D2B030E0D654DEF11F04FEFF8
:1022980011F026EF11F0010E006F020E25EC2EF062
:1022A8003E0E0201006FFD0E016FC3EC2CF097EC9F
:1022B80033F0E60E0201006FFC0E016FC3EC2CF048
:1022C80057EC32F00101306F6EEF11F008EF1FF09C
:1022D8008CEF11F030510001C46FC56BC551000A75
:1022E800D8B479EF11F064EF11F0C451230AD8B4CF
:1022F8005BEF11F0090AD8B46AEF11F01E0AD8B4DE
:10230800F2EF10F0020AD8B4C4EF11F064EF11F044
:10231800000E02010E6F100E126F010E006F020EFA
:1023280025EC2EF0D5EC33F0930E0201066FFD0E6E
:10233800076F010E1225086F096B000E0923B4EC14
:1023480032F00201122B1B0E1265ADEF11F0AFEF48
:1023580011F091EF11F00E2B030E0E65B6EF11F090
:10236800B8EF11F08FEF11F0010E006F020E25EC9F
:102378002EF0B00E0201006FFC0E016FC3EC2CF0C2
:1023880097EC33F0650E0201006FFC0E016FC3EC91
:102398002CF057EC32F00101306FD7EF11F008EF55
:1023A8001FF0F5EF11F030510001C46FC56BC55136
:1023B800000AD8B4E2EF11F0CDEF11F0C451230AAE
:1023C800D8B4C4EF11F0090AD8B4D3EF11F01E0A3B
:1023D800D8B45BEF11F0020AD8B489EF10F0CDEF52
:1023E80011F0000E02010F6F1C0E136F010E006F2B
:1023F800020E25EC2EF0D5EC33F0930E0201066F99
:10240800FD0E076F010E1325086F096B000E0923D7
:10241800B4EC32F00201132B270E136516EF12F0FD
:1024280018EF12F0FAEF11F00F2B030E0F651FEFE4
:1024380012F021EF12F0F8EF11F0010E006F020E0A
:1024480025EC2EF09E0E0201006FFC0E016FC3EC0E
:102458002CF097EC33F0460E0201006FFF0E016F6F
:10246800C3EC2CF0250E0001C56F870EC46F8B0ED0
:10247800E82EFED7C42FFCD7C52FFAD700D097EC8B
:1024880033F0360E0201006FFF0E016FC3EC2CF023
:102498005DEF12F057EC32F00101306F2A0E30195F
:1024A800D8A459EF12F05BEF12F05DEF12F008EFCD
:1024B8001FF057EC32F0230AD8A465EF12F067EF4B
:1024C80012F04EEF12F069EF10F0120097EC33F0B3
:1024D800C50E0201006FFE0E016FC3EC2CF0010E59
:1024E8000201006F020E25EC2EF0D60E0201006FDD
:1024F800FF0E016FC3EC2CF08AEC25F001012A5184
:102508002B112C112D11D8A48CEF12F08EEF12F094
:10251800BBEF12F0000E0201016F050E006F000EF6
:10252800026F98EC30F097EC33F0D70E0201006F91
:10253800FD0E016FC3EC2CF0010E0201006F020EBC
:1025480025EC2EF0C60E0201006FFD0E016FC3ECE4
:102558002CF0110E01016C6F3C0E6B6FCB0EE82E48
:10256800FED76B2FFCD76C2FFAD76AEF12F004EC6A
:1025780032F00CC273F10DC274F10EC275F10FC2C4
:1025880076F1000E01016F6F000E706F000E716F13
:10259800000E726F000E7C6F000E7B6F11EF13F050
:1025A8007BC100F27CC101F2000E0201036F0C0E28
:1025B800026F19EC33F00A0E02010027000E012306
:1025C80000C208F201C209F20A6B0B6BC1EC2FF0D2
:1025D80008C277F109C278F10AC279F10BC27AF11F
:1025E80001012A5177190DE12B5178190AE12C5173
:1025F800791907E12D517A19D8A405EF13F007EFDF
:1026080013F00FEF13F07BC16FF17CC170F1716BA8
:10261800726B3DEF13F07B4B7C2B7B516B6F7C51C6
:102628006C6F6D6B6E6B6B51735D6C5174596D5142
:1026380075596E517659D8B024EF13F026EF13F080
:10264800D4EF12F097EC33F0B40E0201006FFE0ED7
:10265800016FC3EC2CF0110E01016C6F3C0E6B6F17
:10266800CB0EE82EFED76B2FFCD76C2FFAD76AEF6C
:1026780012F097EC33F0660E0201006FFF0E016F47
:10268800C3EC2CF0010E0201006F020E25EC2EF0B7
:10269800C40E0201006FFF0E016FC3EC2CF08AEC30
:1026A80025F001012A512B112C112D11D8A45FEF0F
:1026B80013F061EF13F08EEF13F0000E0201016FBB
:1026C800050E006F000E026F98EC30F097EC33F0B7
:1026D800D60E0201006FFE0E016FC3EC2CF0010E46
:1026E8000201006F020E25EC2EF0B50E0201006FFC
:1026F800FD0E016FC3EC2CF0110E01016C6F3C0E46
:102708006B6FCB0EE82EFED76B2FFCD76C2FFAD74A
:102718003DEF13F06FC100F270C101F271C102F216
:1027280072C103F20C0E0201046F000E056F000E59
:10273800066F000E076FEFEC2DF0120E0201002558
:1027480000018C6F000E0201012100018D6F000E47
:102758000201022100018E6F000E02010321000117
:102768008F6F8CC003F28DC004F28EC005F28FC04B
:1027780006F22AC107F22BC108F22CC109F22DC1B9
:102788000AF2AFEC31F08CC008F28DC009F28EC0AD
:102798000AF28FC00BF2C1EC2FF008C277F109C220
:1027A80078F10AC279F10BC27AF1010177512A193D
:1027B8000FE178512B190CE179512C1909E17A5163
:1027C8002D19D8B4EAEF13F0ECEF13F016EF14F06C
:1027D80097EC33F0010E0201006F010E25EC2EF08C
:1027E800810E0201006FFE0E016FC3EC2CF0060E85
:1027F8000201006F020E25EC2EF0F80E0201006FA8
:10280800FF0E016FC3EC2CF0110E01016C6F3C0E32
:102818006B6FCB0EE82EFED76B2FFCD76C2FFAD739
:102828006AEF12F06AEF12F01200BAC073F1BBC07F
:1028380074F1BCC075F1BDC076F1BEC077F1BFC000
:1028480078F1C0C079F1C1C07AF101017ABF2FEFE8
:1028580014F032EF14F0010E33EF14F0000E716F24
:10286800726B71517211D8B43CEF14F03EEF14F052
:102878004EEF14F07A1F791F781F771F761F751F88
:10288800741F736D000E74237523762377237823C2
:1028980079237A23000193BF54EF14F056EF14F014
:1028A80057EF14F0949393BF64EF14F0935106E13B
:1028B8009205D8B062EF14F064EF14F06BEF14F0E7
:1028C800000E01016E6F010E6D6F6FEF14F092C074
:1028D8006DF193C06EF190C06FF191C070F101017C
:1028E80071517211D8A47BEF14F07DEF14F085EFCD
:1028F80014F0000194A583EF14F085EF14F089EF2C
:1029080014F001016F07D8A07007000E01017C6F59
:102918001F0E7B6F000E526F13EF15F001017B073E
:10292800D8A07C07330E7B25D96E010E7C21DA6E88
:1029380073C19EF074C19FF075C1A0F076C1A1F07B
:1029480077C1A2F078C1A3F079C1A4F07AC1A5F04B
:102958000A0E0001A66F000EA76F000EA86F000EEA
:10296800A96F000EAA6F000EAB6F000EAC6F000EC1
:10297800AD6F41EC26F09EC063F19FC064F1A0C02A
:1029880065F1A1C066F1A2C067F1A3C068F1A4C057
:1029980069F1A5C06AF163C1AEF065C1AFF0BBECE7
:1029A80030F00001AE51300FDF6E01016D07D8A085
:1029B8006E076F07D8A0700773C19EF074C19FF0AF
:1029C80075C1A0F076C1A1F077C1A2F078C1A3F0DB
:1029D80079C1A4F07AC1A5F00A0E0001A66F000E15
:1029E800A76F000EA86F000EA96F000EAA6F000E49
:1029F800AB6F000EAC6F000EAD6F45EC23F09EC0C0
:102A080073F19FC074F1A0C075F1A1C076F1A2C0A6
:102A180077F1A3C078F1A4C079F1A5C07AF10101DA
:102A28007CBF1FEF15F07C5108E17B05D8A01FEF94
:102A380015F021EF15F052EF15F07351741175115F
:102A480076117711781179117A11D8A42EEF15F033
:102A580030EF15F092EF14F06EBF3DEF15F06E51A8
:102A680006E16D05D8B03BEF15F03DEF15F092EF9C
:102A780014F070BF48EF15F0705108E16F05D8A049
:102A880048EF15F04AEF15F052EF15F0000194B336
:102A980050EF15F052EF15F092EF14F0010171515B
:102AA8007211D8A45AEF15F05CEF15F064EF15F029
:102AB800000194A562EF15F064EF15F083EF15F0AF
:102AC80001017B07D8A07C0771517211D8A46FEF60
:102AD80015F071EF15F077EF15F0000E6C6F2B0EF7
:102AE8006B6F7BEF15F0000E6C6F2D0E6B6F330E56
:102AF8007B25D96E010E7C21DA6E6BC1DFFFB8C071
:102B0800A6F0B9C0A7F0330E01017B250001A86F1C
:102B1800010E01017C210001A96F6FC1AAF070C1EB
:102B2800ABF0BDEC2AF0A6C0B8F0A7C0B9F012000F
:102B3800BAC073F1BBC074F1BCC075F1BDC076F109
:102B4800BEC077F1BFC078F1C0C079F1C1C07AF1D9
:102B580001017ABFB2EF15F0B5EF15F0010EB6EF2F
:102B680015F0000E716F726B71517211D8B4BFEF0E
:102B780015F0C1EF15F0D1EF15F07A1F791F781F06
:102B8800771F761F751F741F736D000E74237523CE
:102B980076237723782379237A23000193BFD7EF0D
:102BA80015F0D9EF15F0DAEF15F0949393BFE7EF2E
:102BB80015F0935106E19205D8B0E5EF15F0E7EF6F
:102BC80015F0EEEF15F0000E01016E6F010E6D6F3E
:102BD800F2EF15F092C06DF193C06EF190C06FF1F5
:102BE80091C070F1010171517211D8A4FEEF15F076
:102BF80000EF16F008EF16F0000194A506EF16F0A6
:102C080008EF16F00CEF16F001016F07D8A0700757
:102C1800000E01017C6F1F0E7B6F000E526F96EF46
:102C280016F001017B07D8A07C07330E7B25D96EEF
:102C3800010E7C21DA6E73C19EF074C19FF075C1DC
:102C4800A0F076C1A1F077C1A2F078C1A3F079C154
:102C5800A4F07AC1A5F00A0E0001A66F000EA76FB6
:102C6800000EA86F000EA96F000EAA6F000EAB6FC2
:102C7800000EAC6F000EAD6FF4EC26F09EC063F151
:102C88009FC064F1A0C065F1A1C066F1A2C067F160
:102C9800A3C068F1A4C069F1A5C06AF163C1AEF030
:102CA80065C1AFF0FDEC30F00001AE51300FDF6EC2
:102CB80001016D07D8A06E076F07D8A0700773C110
:102CC8009EF074C19FF075C1A0F076C1A1F077C1E4
:102CD800A2F078C1A3F079C1A4F07AC1A5F00A0ED8
:102CE8000001A66F000EA76F000EA86F000EA96F57
:102CF800000EAA6F000EAB6F000EAC6F000EAD6F2A
:102D08000AEC24F09EC073F19FC074F1A0C075F165
:102D1800A1C076F1A2C077F1A3C078F1A4C079F17F
:102D2800A5C07AF101017CBFA2EF16F07C5108E141
:102D38007B05D8A0A2EF16F0A4EF16F0D5EF16F099
:102D480073517411751176117711781179117A11FF
:102D5800D8A4B1EF16F0B3EF16F015EF16F06EBF6A
:102D6800C0EF16F06E5106E16D05D8B0BEEF16F053
:102D7800C0EF16F015EF16F070BFCBEF16F07051DC
:102D880008E16F05D8A0CBEF16F0CDEF16F0D5EF20
:102D980016F0000194B3D3EF16F0D5EF16F015EF47
:102DA80016F0010171517211D8A4DDEF16F0DFEFB2
:102DB80016F0E7EF16F0000194A5E5EF16F0E7EF3F
:102DC80016F006EF17F001017B07D8A07C077151B8
:102DD8007211D8A4F2EF16F0F4EF16F0FAEF16F02D
:102DE800000E6C6F2B0E6B6FFEEF16F0000E6C6F03
:102DF8002D0E6B6F330E7B25D96E010E7C21DA6E9A
:102E08006BC1DFFFB8C0A6F0B9C0A7F0330E01014F
:102E18007B250001A86F010E01017C210001A96F2B
:102E28006FC1AAF070C1ABF022EC2BF0A6C0B8F0CD
:102E3800A7C0B9F012007FC1D9FF80C1DAFFDECF89
:102E4800F6FFDDCFF7FFF86A0800F550250AD8A489
:102E580030EF17F032EF17F07AEF18F07FC1D9FF93
:102E680080C1DAFFDE2A000EDD22000E0001916F1C
:102E7800000E906F90C094F091C095F0926993699C
:102E88007FC1D9FF80C1DAFFDECFF6FFDDCFF7FFC4
:102E9800F86A0800F550640AD8B455EF17F057EFF0
:102EA80017F06AEF17F07FC1D9FF80C1DAFFDECFD4
:102EB800F6FFDDCFF7FFF86A0800F550690AD8A4D5
:102EC80068EF17F06AEF17F0ABEF17F07FC1D9FF83
:102ED80080C1DAFFDE2A000EDD2281C1D9FF82C15E
:102EE800DAFFDFCF83F1020EDE26DFCF84F1000E9A
:102EF800DD2283C1D9FF84C1DAFFDECF91F1DDCFB6
:102F080092F10101000E92BFFF0E936F946F956FBF
:102F1800966F976F986F7DC1B8F07EC1B9F091C177
:102F2800BAF092C1BBF093C1BCF094C1BDF095C199
:102F3800BEF096C1BFF097C1C0F098C1C1F019ECBE
:102F480014F0B8C07DF1B9C07EF197EF18F07FC1D9
:102F5800D9FF80C1DAFFDECF9EF0DDCF9FF09D0E56
:102F6800A06FFF0EA16F000EA36F020EA26FFBEC05
:102F780028F000019E519F11D8B4C5EF17F0C7EF94
:102F880017F0E3EF17F07FC1D9FF80C1DAFFDECF7A
:102F98009EF0DDCF9FF0FC0EA06FFF0EA16F000E1C
:102FA800A36F020EA26FFBEC28F000019E519F1147
:102FB800D8A4E1EF17F0E3EF17F041EF18F0020E95
:102FC8007FC1D9FF80C1DAFFDE26000EDD2281C174
:102FD800D9FF82C1DAFFDFCF83F1040EDE26DFCF0F
:102FE80084F1000EDD2283C1D9FF84C1DAFFDECF70
:102FF80085F1DECF86F1DECF87F1DECF88F185C19E
:1030080089F186C18AF187C18BF188C18CF10101F0
:103018008D6B8CBF8D698DC18EF18DC18FF18DC186
:1030280090F189C191F18AC192F18BC193F18CC160
:1030380094F18DC195F18EC196F18FC197F190C130
:1030480098F17DC1B8F07EC1B9F091C1BAF092C1D2
:10305800BBF093C1BCF094C1BDF095C1BEF096C160
:10306800BFF097C1C0F098C1C1F019EC14F0B8C016
:103078007DF1B9C07EF197EF18F07FC1D9FF80C10B
:10308800DAFFDECFF6FFDDCFF7FFF86A0800F5506C
:10309800250AD8A452EF18F054EF18F06CEF18F086
:1030A8007FC1D9FF80C1DAFFDE2A000EDD22000EC3
:1030B8009F6F250E9E6F7DC1A0F07EC1A1F0E8EC48
:1030C8002BF0000E01017E6F010E7D6F97EF18F057
:1030D8007FC1D9FF80C1DAFFDE2A000EDD22000E93
:1030E80001017E6F000E7D6F97EF18F07FC1D9FF49
:1030F80080C1DAFFDECFF6FFDDCFF7FFF86A080000
:10310800F55000019E6F9F6B7DC1A0F07EC1A1F0BC
:10311800E8EC2BF07FC1D9FF80C1DAFFDE2A000E70
:10312800DD2265EF18F012007FC1D9FF80C1DAFFF8
:10313800DECFF6FFDDCFF7FFF86A0800F550250A65
:10314800D8A4A9EF18F0ABEF18F0F3EF19F07FC18E
:10315800D9FF80C1DAFFDE2A000EDD22000E000151
:10316800916F000E906F90C094F091C095F09269A5
:1031780093697FC1D9FF80C1DAFFDECFF6FFDDCFCB
:10318800F7FFF86A0800F550640AD8B4CEEF18F0D3
:10319800D0EF18F0E3EF18F07FC1D9FF80C1DAFF54
:1031A800DECFF6FFDDCFF7FFF86A0800F550690AB1
:1031B800D8A4E1EF18F0E3EF18F024EF19F07FC17D
:1031C800D9FF80C1DAFFDE2A000EDD2281C1D9FFD6
:1031D80082C1DAFFDFCF83F1020EDE26DFCF84F172
:1031E800000EDD2283C1D9FF84C1DAFFDECF91F161
:1031F800DDCF92F10101000E92BFFF0E936F946F25
:10320800956F966F976F986F7DC1B8F07EC1B9F0D2
:1032180091C1BAF092C1BBF093C1BCF094C1BDF0AA
:1032280095C1BEF096C1BFF097C1C0F098C1C1F07A
:103238009CEC15F0B8C07DF1B9C07EF110EF1AF022
:103248007FC1D9FF80C1DAFFDECF9EF0DDCF9FF0CE
:103258009D0EA06FFF0EA16F000EA36F020EA26F4E
:1032680071EC29F000019E519F11D8B43EEF19F07E
:1032780040EF19F05CEF19F07FC1D9FF80C1DAFF88
:10328800DECF9EF0DDCF9FF0FC0EA06FFF0EA16F8A
:10329800000EA36F020EA26F71EC29F000019E517F
:1032A8009F11D8A45AEF19F05CEF19F0BAEF19F092
:1032B800020E7FC1D9FF80C1DAFFDE26000EDD22B3
:1032C80081C1D9FF82C1DAFFDFCF83F1040EDE2688
:1032D800DFCF84F1000EDD2283C1D9FF84C1DAFF7C
:1032E800DECF85F1DECF86F1DECF87F1DECF88F144
:1032F80085C189F186C18AF187C18BF188C18CF1BA
:1033080001018D6B8CBF8D698DC18EF18DC18FF1DF
:103318008DC190F189C191F18AC192F18BC193F16C
:103328008CC194F18DC195F18EC196F18FC197F141
:1033380090C198F17DC1B8F07EC1B9F091C1BAF0E1
:1033480092C1BBF093C1BCF094C1BDF095C1BEF071
:1033580096C1BFF097C1C0F098C1C1F09CEC15F0C0
:10336800B8C07DF1B9C07EF110EF1AF07FC1D9FF66
:1033780080C1DAFFDECFF6FFDDCFF7FFF86A08007D
:10338800F550250AD8A4CBEF19F0CDEF19F0E5EFE9
:1033980019F07FC1D9FF80C1DAFFDE2A000EDD22D5
:1033A800000E9F6F250E9E6F7DC1A0F07EC1A1F01B
:1033B80034EC2CF0000E01017E6F010E7D6F10EFD2
:1033C8001AF07FC1D9FF80C1DAFFDE2A000EDD22A4
:1033D800000E01017E6F000E7D6F10EF1AF07FC1A5
:1033E800D9FF80C1DAFFDECFF6FFDDCFF7FFF86A3D
:1033F8000800F55000019E6F9F6B7DC1A0F07EC153
:10340800A1F034EC2CF07FC1D9FF80C1DAFFDE2AAD
:10341800000EDD22DEEF19F0120097EC33F0700E8B
:103428000201006FFF0E016FC3EC2CF0060E0201C3
:10343800006F020E25EC2EF0F50E0201006FFF0E54
:10344800016FC3EC2CF0000E0101326F070E3265DC
:1034580030EF1AF032EF1AF034EF1AF03FEF1AF0AB
:103468005D0E3225D96EDA6A010EDA22000EDF6EA1
:10347800322B2AEF1AF0000E0001BC6F080EBB6F4A
:10348800000EBA6F000EB96F9FEF1AF057EC32F0CA
:103498000101306F5D0E0001B925D96E010EBA2108
:1034A800DA6E30C1DFFF2A0E01015D19D8A45FEF83
:1034B8001AF061EF1AF063EF1AF01EEF0CF02A0E03
:1034C80001013019D8A46BEF1AF06DEF1AF08CEFE8
:1034D8001AF00001BB07D8A0BC07B907D8A0BA07E3
:1034E800BBC000F2020E25EC2EF0200E01EC34F0E9
:1034F800BBC000F2020E25EC2EF05D0E0001B925CE
:10350800D96E010EBA21DA6E000EDF6E9FEF1AF047
:10351800230E3019D8A493EF1AF095EF1AF097EF0D
:103528001AF0B5EF1AF02A0E01EC34F00001BB4B8B
:10353800BC2BB94BBA2BBC5109E1080EBB5DD8A016
:10354800A8EF1AF0AAEF1AF0B5EF1AF0BC5109E18A
:103558000F0EBB5DD8A0B3EF1AF0B5EF1AF04AEF23
:103568001AF05D0E0201046F010E056FAEEC21F03A
:10357800020104C2B5F005C2B6F00001000EB6BFE4
:10358800FF0EB76FB86FB551B611B711B811D8A4FF
:10359800D0EF1AF0D2EF1AF0F6EF1AF097EC33F0FA
:1035A8001C0E0201006FFD0E016FC3EC2CF0010E22
:1035B8000201006F020E25EC2EF0710E0201006F61
:1035C800FD0E016FC3EC2CF0110E0001B06F3C0E24
:1035D800AF6FCB0EE82EFED7AF2FFCD7B02FFAD7A0
:1035E8001EEF0CF0ABC000F2ACC001F2ADC002F2AD
:1035F800AEC003F20C0E0201046F000E056F000E40
:10360800066F000E076FEFEC2DF0120E0201002579
:10361800086F000E0121096F000E02210A6F000ECB
:1036280003210B6FC1EC2FF008C2B1F009C2B2F050
:103638000AC2B3F00BC2B4F00001B551B1190DE1E3
:10364800B651B2190AE1B751B31907E1B851B41923
:10365800D8A431EF1BF033EF1BF058EF1BF097ECB9
:1036680033F03D0E0201006FFE0E016FC3EC2CF02B
:103678008C823D0E0001B06FE10EAF6F3F0EE82E59
:10368800FED7AF2FFCD7B02FFAD700D04DEF1BF0E5
:103698008C928CB252EF1BF054EF1BF04CEF1BF0E6
:1036A8001EEF0CF07CEF1BF097EC33F01C0E0201C0
:1036B800006FFD0E016FC3EC2CF0010E0201006FCC
:1036C800020E25EC2EF0710E0201006FFD0E016F47
:1036D800C3EC2CF0110E0001B06F3C0EAF6FCB0E97
:1036E800E82EFED7AF2FFCD7B02FFAD71EEF0CF07D
:1036F80012007DEC33F0700E00019E6FFF0E9F6F7D
:1037080080EC2CF0060E0201226F020E82EC2DF0E6
:10371800F50E00019E6FFF0E9F6F80EC2CF0000EDF
:103728000101326F070E32659CEF1BF09EEF1BF014
:10373800A0EF1BF0ABEF1BF05D0E3225D96EDA6AF5
:10374800010EDA22000EDF6E322B96EF1BF0000E10
:103758000001C26F080EC16F000EC06F000EBF6F70
:103768000BEF1CF03CEC32F00101306F5D0E0001F4
:10377800BF25D96E010EC021DA6E30C1DFFF2A0ED7
:1037880001015D19D8A4CBEF1BF0CDEF1BF0CFEFF3
:103798001BF01EEF0CF02A0E01013019D8A4D7EF48
:1037A8001BF0D9EF1BF0F8EF1BF00001C107D8A000
:1037B800C207BF07D8A0C007C1C022F2020E82EC20
:1037C8002DF0200EFFEC33F0C1C022F2020E82EC85
:1037D8002DF05D0E0001BF25D96E010EC021DA6EF5
:1037E800000EDF6E0BEF1CF0230E3019D8A4FFEF8C
:1037F8001BF001EF1CF003EF1CF021EF1CF02A0E68
:10380800FFEC33F00001C14BC22BBF4BC02BC251A0
:1038180009E1080EC15DD8A014EF1CF016EF1CF0EA
:1038280021EF1CF0C25109E10F0EC15DD8A01FEFB6
:103838001CF021EF1CF0B6EF1BF05D0E0001A26F2B
:10384800010EA36F7EEC22F00001A2C0BBF0A3C062
:10385800BCF0000EBCBFFF0EBD6FBE6FBB51BC11EC
:10386800BD11BE11D8A43BEF1CF03DEF1CF061EF79
:103878001CF07DEC33F01C0E00019E6FFD0E9F6F57
:1038880080EC2CF0010E0201226F020E82EC2DF06A
:10389800710E00019E6FFD0E9F6F80EC2CF0110ED3
:1038A8000001B66F3C0EB56FCB0EE82EFED7B52FD4
:1038B800FCD7B62FFAD71EEF0CF0B1C09EF0B2C0FD
:1038C8009FF0B3C0A0F0B4C0A1F00C0E0001A26F2D
:1038D800000EA36F000EA46F000EA56FB9EC2DF0BB
:1038E800120E00019E25A66F000E9F21A76F000EE5
:1038F800A021A86F000EA121A96FE7EC2FF0A6C0A8
:10390800B7F0A7C0B8F0A8C0B9F0A9C0BAF00001D4
:10391800BB51B7190DE1BC51B8190AE1BD51B9192C
:1039280007E1BE51BA19D8A49CEF1CF09EEF1CF019
:10393800C3EF1CF07DEC33F03D0E00019E6FFE0ED0
:103948009F6F80EC2CF08C823D0E0001B66FE10E6B
:10395800B56F3F0EE82EFED7B52FFCD7B62FFAD796
:1039680000D0B8EF1CF08C928CB2BDEF1CF0BFEF0A
:103978001CF0B7EF1CF01EEF0CF0E7EF1CF07DEC2D
:1039880033F01C0E00019E6FFD0E9F6F80EC2CF033
:10399800010E0201226F020E82EC2DF0710E000161
:1039A8009E6FFD0E9F6F80EC2CF0110E0001B66F1C
:1039B8003C0EB56FCB0EE82EFED7B52FFCD7B62F31
:1039C800FAD71EEF0CF012000400000E0101326F4E
:1039D800070E3265F2EF1CF0F4EF1CF0F6EF1CF066
:1039E80001EF1DF05D0E3225D96EDA6A010EDA227A
:1039F800000EDF6E322BECEF1CF0000E326F3CEC49
:103A080032F00101306F2A0E3019D8A40EEF1DF0E4
:103A180010EF1DF012EF1DF01EEF0CF0230E010148
:103A28003019D8A41AEF1DF01CEF1DF081EF1DF01E
:103A38002A0EE8EC31F004005D0E01013225D96E42
:103A4800DA6A010EDA223CEC32F0DF6E5D0E01011B
:103A58003225D96EDA6A010EDA22230EDE18D8A4CE
:103A680038EF1DF03AEF1DF044EF1DF05D0E3225E2
:103A7800D96EDA6A010EDA22000EDF6E63EF1DF0EE
:103A88005D0E3225D96EDA6A010EDA222A0EDE18A8
:103A9800D8A451EF1DF053EF1DF055EF1DF01EEFA8
:103AA8000CF02A0EE8EC31F00101322B312B050E17
:103AB800326561EF1DF063EF1DF01FEF1DF05D0E25
:103AC8000001A26F010EA36F7EEC22F0A2C039F2B2
:103AD800A3C03AF2D20E0201391907E1040E3A19CD
:103AE800D8A479EF1DF07BEF1DF07FEF1DF008ECF7
:103AF8001FF081EF1DF01EEF0CF02A0E01013019A6
:103B0800D8A489EF1DF08BEF1DF094EF1DF0230E64
:103B18003019D8B492EF1DF094EF1DF0F5EF1DF0B9
:103B28005D0E3225D96EDA6A010EDA2230C1DFFF66
:103B3800322B2A0EE8EC31F004005D0E010132252B
:103B4800D96EDA6A010EDA223CEC32F0DF6E5D0ED5
:103B580001013225D96EDA6A010EDA22230EDE1847
:103B6800D8A4B9EF1DF0BBEF1DF0C5EF1DF05D0E39
:103B78003225D96EDA6A010EDA22000EDF6EE4EF22
:103B88001DF05D0E3225D96EDA6A010EDA222A0E90
:103B9800DE18D8A4D2EF1DF0D4EF1DF0D6EF1DF03B
:103BA8001EEF0CF02A0EE8EC31F00101322B312B1C
:103BB800050E3265E2EF1DF0E4EF1DF0A0EF1DF0F9
:103BC8005D0E0001A26F010EA36F7EEC22F0A2C071
:103BD80039F2A3C03AF239C222F23AC223F2DAEC3D
:103BE80020F01EEF0CF012000400000E0101326FED
:103BF800070E326502EF1EF004EF1EF006EF1EF00E
:103C080011EF1EF05D0E3225D96EDA6A010EDA2246
:103C1800000EDF6E322BFCEF1DF0000E326F57ECFA
:103C280032F00101306F2A0E3019D8A41EEF1EF0B1
:103C380020EF1EF022EF1EF01EEF0CF0230E010104
:103C48003019D8A42AEF1EF02CEF1EF091EF1EF0C9
:103C58002A0E20EC32F004005D0E01013225D96EE7
:103C6800DA6A010EDA2257EC32F0DF6E5D0E0101DE
:103C78003225D96EDA6A010EDA22230EDE18D8A4AC
:103C880048EF1EF04AEF1EF054EF1EF05D0E32258D
:103C9800D96EDA6A010EDA22000EDF6E73EF1EF0BB
:103CA8005D0E3225D96EDA6A010EDA222A0EDE1886
:103CB800D8A461EF1EF063EF1EF065EF1EF01EEF53
:103CC8000CF02A0E20EC32F00101322B312B050EBC
:103CD800326571EF1EF073EF1EF02FEF1EF05D0ED0
:103CE8000201046F010E056FAEEC21F004C223F24D
:103CF80005C224F2D20E0201231907E1040E241989
:103D0800D8A489EF1EF08BEF1EF08FEF1EF008ECA1
:103D18001FF091EF1EF01EEF0CF02A0E0101301972
:103D2800D8A499EF1EF09BEF1EF0A4EF1EF0230E0F
:103D38003019D8B4A2EF1EF0A4EF1EF005EF1FF063
:103D48005D0E3225D96EDA6A010EDA2230C1DFFF44
:103D5800322B2A0E20EC32F004005D0E01013225D0
:103D6800D96EDA6A010EDA2257EC32F0DF6E5D0E98
:103D780001013225D96EDA6A010EDA22230EDE1825
:103D8800D8A4C9EF1EF0CBEF1EF0D5EF1EF05D0EE4
:103D98003225D96EDA6A010EDA22000EDF6EF4EFF0
:103DA8001EF05D0E3225D96EDA6A010EDA222A0E6D
:103DB800DE18D8A4E2EF1EF0E4EF1EF0E6EF1EF0E6
:103DC8001EEF0CF02A0E20EC32F00101322B312BC1
:103DD800050E3265F2EF1EF0F4EF1EF0B0EF1EF0A4
:103DE8005D0E0201046F010E056FAEEC21F004C2F6
:103DF80023F205C224F223C2BDF024C2BEF0FEECB9
:103E08001FF01EEF0CF01200010E0001C66F040037
:103E180097EC33F0700E0201006FFE0E016FC3ECD9
:103E28002CF0010E0201006F020E25EC2EF0920E0E
:103E38000201006FFE0E016FC3EC2CF057EC32F05C
:103E48000101306F45EF1FF00001C607C651D8A425
:103E580030EF1FF032EF1FF05BEF1FF0060EC66F5A
:103E68005BEF1FF00001C62B070EC619D8A43FEF61
:103E78001FF041EF1FF05BEF1FF0010EC66F5BEF05
:103E88001FF030510201206F216B2151000AD8B474
:103E980050EF1FF05BEF1FF02051340AD8B428EF21
:103EA8001FF0020AD8B436EF1FF05BEF1FF0010EC7
:103EB8000201006F010E25EC2EF0D6EF1FF0700EF8
:103EC800006FFE0E016FC3EC2CF0230E01013019B8
:103ED800D8A471EF1FF073EF1FF015EF1FF07DEC02
:103EE80009F02C0E0201006FFE0E016FC3EC2CF0DE
:103EF800230E01013019D8A484EF1FF086EF1FF0BC
:103F080015EF1FF0E7EC29F0260E0201006FFF0EF7
:103F1800016FC3EC2CF0230E01013019D8A497EFE0
:103F28001FF099EF1FF015EF1FF0A1EC03F0060E3C
:103F38000201006FFF0E016FC3EC2CF0230E01018C
:103F48003019D8A4AAEF1FF0ACEF1FF015EF1FF03F
:103F58006AEC12F0F80E0201006FFC0E016FC3EC60
:103F68002CF0230E01013019D8A4BDEF1FF0BFEFCC
:103F78001FF015EF1FF069EC10F08C0E0201006FB6
:103F8800FC0E016FC3EC2CF0230E01013019D8A4EC
:103F9800D0EF1FF0D2EF1FF015EF1FF01EEF0CF05F
:103FA80015EF1FF00001C6510201206F216B21514E
:103FB800000AD8B4E2EF1FF015EF1FF02051010AF4
:103FC800D8B463EF1FF0030AD8B475EF1FF0010AE5
:103FD800D8B488EF1FF0070AD8B49BEF1FF0010A86
:103FE800D8B4AEEF1FF0030AD8B4C1EF1FF015EF35
:103FF8001FF012000001BD51BE11D8A406EF20F039
:1040080008EF20F02CEF20F097EC33F0D70E0201E8
:10401800006FFD0E016FC3EC2CF0010E0201006F62
:10402800020E25EC2EF0C60E0201006FFD0E016F88
:10403800C3EC2CF0110E0001C06F3C0EBF6FCB0E0D
:10404800E82EFED7BF2FFCD7C02FFAD71EEF0CF0F3
:10405800000E0201016F050E006F000E026F98EC52
:1040680030F004EC32F00CC263F10DC264F10EC200
:1040780065F10FC266F1010E01016F6F000E706FDE
:10408800000E716F000E726FB2EF20F06FC100F278
:1040980070C101F271C102F272C103F20C0E020189
:1040A800046F000E056F000E066F000E076FEFEC31
:1040B8002DF00A0E02010025086F000E0121096F7C
:1040C800000E02210A6F000E03210B6FC1EC2FF0C6
:1040D80008C267F109C268F10AC269F10BC26AF144
:1040E800BDC0BFF0BEC0C0F0000E0001C0BFFF0ED3
:1040F800C16FC26F010167510001BF1913E10101CE
:1041080068510001C0190EE1010169510001C1198E
:1041180009E101016A510001C219D8A496EF20F003
:1041280098EF20F0ABEF20F06FC16BF170C16CF12C
:1041380071C16DF172C16EF16BC1ABF06CC1ACF0C5
:104148006DC1ADF06EC1AEF011EC1AF00400010EB5
:1041580001016F27000E7023712372236F51635D75
:10416800705164597151655972516659D8B0BFEF91
:1041780020F0C1EF20F04AEF20F097EC33F0B40EB6
:104188000201006FFE0E016FC3EC2CF00400110E4B
:104198000001C06F3C0EBF6FCB0EE82EFED7BF2FBD
:1041A800FCD7C02FFAD71EEF0CF0120002012251E3
:1041B8002311D8A4E2EF20F0E4EF20F008EF21F07B
:1041C8007DEC33F0D70E00019E6FFD0E9F6F80ECE3
:1041D8002CF0010E0201226F020E82EC2DF0C60EA9
:1041E80000019E6FFD0E9F6F80EC2CF0110E0201F6
:1041F800256F3C0E246FCB0EE82EFED7242FFCD75C
:10420800252FFAD71EEF0CF0000E00019F6F050E48
:104218009E6F000EA06F2FEC30F0CCEC31F0AFC0E9
:1042280028F2B0C029F2B1C02AF2B2C02BF2010EB6
:104238000201346F000E356F000E366F000E376FB7
:1042480086EF21F034C29EF035C29FF036C2A0F04E
:1042580037C2A1F00C0E0001A26F000EA36F000E72
:10426800A46F000EA56FB9EC2DF00A0E00019E2573
:10427800A66F000E9F21A76F000EA021A86F000E49
:10428800A121A96FE7EC2FF0A6C02CF2A7C02DF250
:10429800A8C02EF2A9C02FF222C224F223C225F20E
:1042A800000E020125BFFF0E266F276F2C5124191F
:1042B8000DE12D5125190AE12E51261907E12F513B
:1042C8002719D8A46AEF21F06CEF21F07FEF21F0D5
:1042D80034C230F235C231F236C232F237C233F26A
:1042E80030C2B1F031C2B2F032C2B3F033C2B4F06E
:1042F8007DEC1BF00400010E02013427000E35236B
:10430800362337233451285D3551295936512A59D6
:1043180037512B59D8B093EF21F095EF21F026EFC4
:1043280021F07DEC33F0B40E00019E6FFE0E9F6FFE
:1043380080EC2CF00400110E0201256F3C0E246F56
:10434800CB0EE82EFED7242FFCD7252FFAD71EEF49
:104358000CF01200000E0001AA6F000EA96F000EEB
:10436800A36F000EA26FBCEF21F00201044B052BD6
:10437800010E0001A86F04C2D9FF05C2DAFF200EA2
:10438800DE18D8B4CAEF21F0CCEF21F0E8EF21F025
:10439800F70E9E6FFF0E9F6F04C2D9FF05C2DAFFAA
:1043A800DF50A06FA16B9E51A0279F51A123A1515F
:1043B80009E1050EA05DD8A0E4EF21F0E6EF21F0B9
:1043C800E8EF21F0000EA86FA8C0A4F0A56BA451D7
:1043D800A511D8A4F2EF21F0F4EF21F0B9EF21F004
:1043E800FFEF21F0000EA36F010EA26F0201044B34
:1043F800052B3AEF22F004C2D9FF05C2DAFFDF50DD
:104408009E6F9F6B9F51000AD8B40DEF22F03AEFD0
:1044180022F09E512B0AD8B4FAEF21F0060AD8B43C
:10442800F6EF21F03AEF22F0A9C000F2AAC001F29B
:10443800000E0201036F0A0E026F19EC33F004C27A
:10444800D9FF05C2DAFFDF5000019E6F9E510201BD
:10445800005F000E015B300E00250001A96F000E01
:10446800020101210001AA6FFAEF21F0D00E00012C
:104478009E6FFF0E9F6F04C2D9FF05C2DAFFDF509F
:10448800A06FA16B9E51A0279F51A123A1510AE1C2
:104498000A0EA05DD8A053EF22F056EF22F0010ECD
:1044A80057EF22F0000EA66FA76BA651A711D8A44C
:1044B80060EF22F062EF22F018EF22F0A251A31170
:1044C800D8A469EF22F06BEF22F079EF22F0A9C0AF
:1044D8009EF0AAC09FF09E1F9F1F9E4B9F2B9EC0C1
:1044E80004F29FC005F27DEF22F0A9C004F2AAC031
:1044F80005F21200000E0001B06F000EAF6F000E43
:10450800A96F000EA86F8BEF22F0A24BA32B010E10
:10451800AE6FA2C0D9FFA3C0DAFF200EDE18D8B450
:1045280098EF22F09AEF22F0B6EF22F0F70EA46F80
:10453800FF0EA56FA2C0D9FFA3C0DAFFDF50A66F98
:10454800A76BA451A627A551A723A75109E1050EDA
:10455800A65DD8A0B2EF22F0B4EF22F0B6EF22F0B9
:10456800000EAE6FAEC0AAF0AB6BAA51AB11D8A4C7
:10457800C0EF22F0C2EF22F089EF22F0CCEF22F058
:10458800000EA96F010EA86FA24BA32B02EF23F018
:10459800A2C0D9FFA3C0DAFFDF50A46FA56BA55155
:1045A800000AD8B4DAEF22F002EF23F0A4512B0A64
:1045B800D8B4C8EF22F0060AD8B4C4EF22F002EF4C
:1045C80023F0AFC09EF0B0C09FF0000EA16F0A0E9E
:1045D800A06FDDEC32F0A2C0D9FFA3C0DAFFDF5034
:1045E8000001A46FA4519E5F000E9F5B300E9E25B4
:1045F800AF6F000E9F21B06FC8EF22F0D00EA46FEE
:10460800FF0EA56FA2C0D9FFA3C0DAFFDF50A66FC7
:10461800A76BA451A627A551A723A7510AE10A0E03
:10462800A65DD8A01AEF23F01DEF23F0010E1EEFB0
:1046380023F0000EAC6FAD6BAC51AD11D8A427EFD1
:1046480023F029EF23F0E5EF22F0A851A911D8A40F
:1046580030EF23F032EF23F040EF23F0AFC0A4F0A7
:10466800B0C0A5F0A41FA51FA44BA52BA4C0A2F001
:10467800A5C0A3F044EF23F0AFC0A2F0B0C0A3F0F0
:104688001200000E0001AF6FADBF4FEF23F04DEFEA
:1046980023F061EF23F0AD1FAC1FAB1FAA1FA91FAA
:1046A800A81FA71FA66D000EA723A823A923AA2326
:1046B800AB23AC23AD23010EAF6FA5BF68EF23F08A
:1046C80066EF23F07AEF23F0A51FA41FA31FA21FF4
:1046D800A11FA01F9F1F9E6D000E9F23A023A12333
:1046E800A223A323A423A523010EAF1B20EEB0F021
:1046F800070EDE6AE806FDE2A651A711A811A91166
:10470800AA11AB11AC11AD11D8B48DEF23F08FEF16
:1047180023F0E1EF23F0010EAE6F9DEF23F0D89068
:10472800A637A737A837A937AA37AB37AC37AD377D
:10473800AE2BADAFA2EF23F0A4EF23F093EF23F05D
:10474800D890B037B137B237B337B437B537B63793
:10475800B737A6519E5DA7519F59A851A059A95195
:10476800A159AA51A259AB51A359AC51A459AD5161
:10477800A559D8A0C2EF23F0C4EF23F0D5EF23F05A
:10478800A6519E5FA7519F5BA851A05BA951A15B51
:10479800AA51A25BAB51A35BAC51A45BAD51A55B25
:1047A800B081D890AD33AC33AB33AA33A933A83337
:1047B800A733A633AE2FA4EF23F0AF51D8B4E7EF59
:1047C80023F0E9EF23F0F9EF23F0B71FB61FB51F69
:1047D800B41FB31FB21FB11FB06D000EB123B223B7
:1047E800B323B423B523B623B723B0C09EF0B1C01A
:1047F8009FF0B2C0A0F0B3C0A1F0B4C0A2F0B5C0A1
:10480800A3F0B6C0A4F0B7C0A5F01200000E0001D6
:10481800AF6FADBF14EF24F012EF24F026EF24F0B1
:10482800AD1FAC1FAB1FAA1FA91FA81FA71FA66DEE
:10483800000EA723A823A923AA23AB23AC23AD23C7
:10484800010EAF6FA5BF2DEF24F02BEF24F03FEF43
:1048580024F0A51FA41FA31FA21FA11FA01F9F1FF5
:104868009E6D000E9F23A023A123A223A323A4238C
:10487800A523010EAF1B20EEB0F0070EDE6AE80696
:10488800FDE2A651A711A811A911AA11AB11AC11EB
:10489800AD11D8B452EF24F054EF24F0A6EF24F071
:1048A800010EAE6F62EF24F0D890A637A737A8376D
:1048B800A937AA37AB37AC37AD37AE2BADAF67EFFB
:1048C80024F069EF24F058EF24F0D890B037B137CE
:1048D800B237B337B437B537B637B737A6519E5D59
:1048E800A7519F59A851A059A951A159AA51A259F4
:1048F800AB51A359AC51A459AD51A559D8A087EFD4
:1049080024F089EF24F09AEF24F0A6519E5FA75176
:104918009F5BA851A05BA951A15BAA51A25BAB51B7
:10492800A35BAC51A45BAD51A55BB081D890AD330E
:10493800AC33AB33AA33A933A833A733A633AE2F8E
:1049480069EF24F0AF51D8B4ACEF24F0AEEF24F007
:10495800BEEF24F0B71FB61FB51FB41FB31FB21F99
:10496800B11FB06D000EB123B223B323B423B52316
:10497800B623B723B0C09EF0B1C09FF0B2C0A0F07C
:10498800B3C0A1F0B4C0A2F0B5C0A3F0B6C0A4F003
:10499800B7C0A5F01200000E01012A6F000E2B6FA0
:1049A800000E2C6F000E2D6F000E0001B66F000E6A
:1049B800B56F5D0EB525D96E010EB621DA6E000E03
:1049C800DF6EB54BB62BB65109E1070EB55DD8A021
:1049D800F0EF24F0F2EF24F0DDEF24F0000EB86FD2
:1049E800090EB76FB7C022F2020E82EC2DF0200E2E
:1049F800E8EC31F0B7C022F2020E82EC2DF0000193
:104A0800B74BB82BB85109E1110EB75DD8A00FEF1D
:104A180025F011EF25F0F6EF24F0090E0201226FC0
:104A2800020E82EC2DF0000E0001B26F090EB16F7C
:104A3800000EB46F000EB36F61EF25F03CEC32F05E
:104A48000101306F5D0E0001B325D96E010EB4214E
:104A5800DA6E30C1DFFF2A0E01015D19D8A437EFE5
:104A680025F039EF25F03BEF25F008EF1FF02A0E6F
:104A780001013019D8A443EF25F045EF25F047EFA1
:104A880025F0CFEF24F0230E3019D8A44EEF25F0EF
:104A980050EF25F052EF25F077EF25F05D0E00017D
:104AA800B325D96E010EB421DA6EDF50E8EC31F08F
:104AB8000001B14BB22BB34BB42BB25109E1090E33
:104AC800B15DD8A06AEF25F06CEF25F077EF25F0FF
:104AD800B25109E1110EB15DD8A075EF25F077EF5D
:104AE80025F022EF25F05D0E0001A26F010EA36FE5
:104AF8007EEC22F00001A2C02AF1A3C02BF1010133
:104B0800000E2BBFFF0E2C6F2D6F1200000E01013F
:104B18002A6F000E2B6F000E2C6F000E2D6F000EEB
:104B2800686F000E676F5D0E6725D96E010E6821EC
:104B3800DA6E000EDF6E674B682B685109E1070ECD
:104B4800675DD8A0AAEF25F0ACEF25F097EF25F028
:104B5800000E6A6F090E696F69C100F2020E25EC3A
:104B68002EF0200E20EC32F069C100F2020E25EC86
:104B78002EF00101694B6A2B6A5109E1110E695D3A
:104B8800D8A0C9EF25F0CBEF25F0B0EF25F0090E3E
:104B98000201006F020E25EC2EF0000E0101646F79
:104BA800090E636F000E666F000E656F18EF26F032
:104BB80057EC32F00101306F5D0E6525D96E010E9C
:104BC8006621DA6E30C1DFFF2A0E5D19D8A4EFEF37
:104BD80025F0F1EF25F0F3EF25F008EF1FF02A0E8E
:104BE80001013019D8A4FBEF25F0FDEF25F0FFEF08
:104BF80025F08AEF25F0230E3019D8A406EF26F009
:104C080008EF26F00AEF26F02EEF26F05D0E652558
:104C1800D96E010E6621DA6EDF5020EC32F0010108
:104C2800634B642B654B662B645109E1090E635D88
:104C3800D8A021EF26F023EF26F02EEF26F06451BE
:104C480009E1110E635DD8A02CEF26F02EEF26F0B7
:104C5800DCEF25F05D0E0201046F010E056FAEEC6E
:104C680021F0020104C22AF105C22BF10101000E54
:104C78002BBFFF0E2C6F2D6F1200000E026E00016D
:104C8800A5BF4BEF26F049EF26F05DEF26F0A51FF4
:104C9800A41FA31FA21FA11FA01F9F1F9E6D000E70
:104CA8009F23A023A123A223A323A423A523010E8A
:104CB800026EADBF64EF26F062EF26F074EF26F0C7
:104CC800AD1FAC1FAB1FAA1FA91FA81FA71FA66D4A
:104CD800000EA723A823A923AA23AB23AC23AD2323
:104CE800A651A711A811A911AA11AB11AC11AD11A8
:104CF800D8B481EF26F083EF26F0CBEF26F0010E33
:104D0800016E91EF26F0D890A637A737A837A937B4
:104D1800AA37AB37AC37AD37012AADAF96EF26F0DF
:104D280098EF26F087EF26F0A6519E5DA7519F5970
:104D3800A851A059A951A159AA51A259AB51A35997
:104D4800AC51A459AD51A559D8A0ADEF26F0AFEF9D
:104D580026F0BFEF26F0A6519E5FA7519F5BA85192
:104D6800A05BA951A15BAA51A25BAB51A35BAC515B
:104D7800A45BAD51A55BD890AD33AC33AB33AA334C
:104D8800A933A833A733A633012E98EF26F0025093
:104D9800D8B4D1EF26F0D3EF26F0E3EF26F0A51F25
:104DA800A41FA31FA21FA11FA01F9F1F9E6D000E5F
:104DB8009F23A023A123A223A323A423A5239EC02A
:104DC8009EF09FC09FF0A0C0A0F0A1C0A1F0A2C01B
:104DD800A2F0A3C0A3F0A4C0A4F0A5C0A5F012003F
:104DE800000E026E0001A5BFFEEF26F0FCEF26F0D4
:104DF80010EF27F0A51FA41FA31FA21FA11FA01F0C
:104E08009F1F9E6D000E9F23A023A123A223A323EF
:104E1800A423A523010E026EADBF17EF27F015EFEF
:104E280027F027EF27F0AD1FAC1FAB1FAA1FA91F44
:104E3800A81FA71FA66D000EA723A823A923AA238E
:104E4800AB23AC23AD23A651A711A811A911AA1110
:104E5800AB11AC11AD11D8B434EF27F036EF27F011
:104E68007EEF27F0010E016E44EF27F0D890A637A9
:104E7800A737A837A937AA37AB37AC37AD37012AD8
:104E8800ADAF49EF27F04BEF27F03AEF27F0A651E7
:104E98009E5DA7519F59A851A059A951A159AA513E
:104EA800A259AB51A359AC51A459AD51A559D8A099
:104EB80060EF27F062EF27F072EF27F0A6519E5FB0
:104EC800A7519F5BA851A05BA951A15BAA51A25B06
:104ED800AB51A35BAC51A45BAD51A55BD890AD338E
:104EE800AC33AB33AA33A933A833A733A633012E87
:104EF8004BEF27F00250D8B484EF27F086EF27F065
:104F080096EF27F0A51FA41FA31FA21FA11FA01F74
:104F18009F1F9E6D000E9F23A023A123A223A323DE
:104F2800A423A5239EC09EF09FC09FF0A0C0A0F020
:104F3800A1C0A1F0A2C0A2F0A3C0A3F0A4C0A4F095
:104F4800A5C0A5F012008A968A888A8A8C8E1A0EC5
:104F5800016EF80EE82EFED7012EFCD700D081B0E6
:104F6800B8EF27F0BAEF27F0BDEF27F0310E50EF7A
:104F780028F081B2C2EF27F0C4EF27F0C7EF27F07F
:104F8800320E50EF28F081B4CCEF27F0CEEF27F0A7
:104F9800D1EF27F0330E50EF28F08A868A988A8A54
:104FA8008C8E1A0E016EF80EE82EFED7012EFCD755
:104FB80000D081B0E2EF27F0E4EF27F0E7EF27F029
:104FC800340E50EF28F081B2ECEF27F0EEEF27F027
:104FD800F1EF27F0350E50EF28F081B4F6EF27F007
:104FE800F8EF27F0FBEF27F0360E50EF28F08A860F
:104FF8008A888A9A8C8E1A0E016EF80EE82EFED7D1
:10500800012EFCD700D081B00CEF28F00EEF28F06D
:1050180011EF28F0370E50EF28F081B216EF28F084
:1050280018EF28F01BEF28F0380E50EF28F081B465
:1050380020EF28F022EF28F025EF28F0390E50EF66
:1050480028F08A868A888A8A8C9E1A0E016EF80E43
:10505800E82EFED7012EFCD700D081B036EF28F01D
:1050680038EF28F03BEF28F02A0E50EF28F081B2F5
:1050780040EF28F042EF28F045EF28F0300E50EFCF
:1050880028F081B44AEF28F04CEF28F04FEF28F0D1
:10509800230E50EF28F0FF0E12008A968A888A8A1B
:1050A8008C8E1A0E016EF80EE82EFED7012EFCD754
:1050B80000D081B062EF28F064EF28F067EF28F0A5
:1050C800310EFAEF28F081B26CEF28F06EEF28F07D
:1050D80071EF28F0320EFAEF28F081B476EF28F05D
:1050E80078EF28F07BEF28F0330EFAEF28F08A8665
:1050F8008A988A8A8C8E1A0E016EF80EE82EFED7D0
:10510800012EFCD700D081B08CEF28F08EEF28F06C
:1051180091EF28F0340EFAEF28F081B296EF28F0DC
:1051280098EF28F09BEF28F0350EFAEF28F081B4BD
:10513800A0EF28F0A2EF28F0A5EF28F0360EFAEF3E
:1051480028F08A868A888A9A8C8E1A0E016EF80E42
:10515800E82EFED7012EFCD700D081B0B6EF28F09C
:10516800B8EF28F0BBEF28F0370EFAEF28F081B23D
:10517800C0EF28F0C2EF28F0C5EF28F0380EFAEF9C
:1051880028F081B4CAEF28F0CCEF28F0CFEF28F050
:10519800390EFAEF28F08A868A888A8A8C9E1A0E37
:1051A800016EF80EE82EFED7012EFCD700D081B094
:1051B800E0EF28F0E2EF28F0E5EF28F02A0EFAEF0A
:1051C80028F081B2EAEF28F0ECEF28F0EFEF28F0B2
:1051D800300EFAEF28F081B4F4EF28F0F6EF28F05B
:1051E800F9EF28F0230EFAEF28F0FF0E12009EC008
:1051F80002F09FC003F0A0C004F0A1C005F00001B8
:10520800A207D8A0A307A22906E1A329D8A40FEFD3
:1052180029F011EF29F01EEF29F0000E9F6F000E04
:105228009E6F70EF29F0024A032A044A052AA20752
:10523800D8A0A30702C0F6FF03C0F7FFF86A08006A
:10524800F5500009D8B42BEF29F02DEF29F05CEFC9
:1052580029F004C0F6FF05C0F7FFF86A0800F5500A
:105268000009D8B43AEF29F03CEF29F05CEF29F0B7
:10527800A251A311D8B443EF29F045EF29F05CEF10
:1052880029F002C0F6FF03C0F7FFF86A0800F5CF5F
:1052980001F004C0F6FF05C0F7FFF86A0800F550F2
:1052A8000118D8B45AEF29F05CEF29F017EF29F06C
:1052B80002C0F6FF03C0F7FFF86A0800F5CF01F057
:1052C80004C0F6FF05C0F7FFF86A0800F550015C56
:1052D8009E6F9F6BD8A09F0712009EC002F09FC0D0
:1052E80003F0A0C004F0A1C005F00001A207D8A0F7
:1052F800A307A22906E1A329D8A485EF29F087EFFF
:1053080029F094EF29F0000E9F6F000E9E6FE6EFD4
:1053180029F0024A032A044A052AA207D8A0A307AB
:1053280002C0F6FF03C0F7FFF86A0800F55000094D
:10533800D8B4A1EF29F0A3EF29F0D2EF29F004C0E7
:10534800F6FF05C0F7FFF86A0800F5500009D8B461
:10535800B0EF29F0B2EF29F0D2EF29F0A251A31152
:10536800D8B4B9EF29F0BBEF29F0D2EF29F002C089
:10537800F6FF03C0F7FFF86A0800F5CF01F004C094
:10538800F6FF05C0F7FFF86A0800F5500118D8B411
:10539800D0EF29F0D2EF29F08DEF29F002C0F6FF07
:1053A80003C0F7FFF86A0800F5CF01F004C0F6FF64
:1053B80005C0F7FFF86A0800F550015C9E6F9F6B07
:1053C800D8A09F07120097EC33F04E0E0201006F31
:1053D800FE0E016FC3EC2CF057EC32F00101306F78
:1053E800230E3019D8A4FBEF29F0FDEF29F050EF78
:1053F8002AF097EC33F0C20E0201006FFC0E016F29
:10540800C3EC2CF0000E0001A16F000EA06FA0C02D
:1054180000F2A1C001F2000E0201026F98EC30F018
:1054280004000001A04BA12B040EA15DD8A01FEF22
:105438002AF021EF2AF00BEF2AF0000E0201036F89
:10544800000E046F000E056F000E066F010E076F49
:10545800000E086F000E096F000E0A6FAFEC31F0F6
:1054680097EC33F0D5EC33F0A40E0201006FFD0E7B
:10547800016FC3EC2CF0150E00019F6F4B0E9E6F51
:10548800BE0EE82EFED79E2FFCD79F2FFAD700F02E
:1054980008EF1FF052EF2AF008EF1FF012007DEC22
:1054A80033F04E0E00019E6FFE0E9F6F80EC2CF0C5
:1054B8003CEC32F00101306F230E3019D8A467EFAD
:1054C8002AF069EF2AF0BAEF2AF07DEC33F0C20E29
:1054D80000019E6FFC0E9F6F80EC2CF0000E000107
:1054E800AC6F000EAB6FABC09EF0ACC09FF0000E6F
:1054F800A06F2FEC30F004000001AB4BAC2B040E76
:10550800AC5DD8A08AEF2AF08CEF2AF077EF2AF06A
:10551800000EA16F000EA26F000EA36F000EA46F05
:10552800010EA56F000EA66F000EA76F000EA86FE4
:1055380058EC31F07DEC33F0C0EC33F0A40E0001F0
:105548009E6FFD0E9F6F80EC2CF0150E0001AA6F68
:105558004B0EA96FBE0EE82EFED7A92FFCD7AA2F97
:10556800FAD700F008EF1FF0BCEF2AF008EF1FF0A1
:105578001200000194A1C3EF2AF0C5EF2AF0CFEF83
:105588002AF0A8C0A2F0A9C0A3F0A6C0A4F0A7C0A2
:10559800A5F00CEC30F00001ABBFD5EF2AF0D7EF47
:1055A8002AF0DDEF2AF0AAC0AFF0ABC0B0F0E1EF0F
:1055B8002AF0000EB06F000EAF6F000EAE6F000E37
:1055C800AD6FF4EF2AF0000E9F6F200E9E6FA6C0FD
:1055D800A0F0A7C0A1F0E8EC2BF00001AD4BAE2B7A
:1055E800AF51AD5DAE51800AAC6FB051800AAC5975
:1055F800D8A001EF2BF003EF2BF0E7EF2AF094B1DE
:1056080008EF2BF00AEF2BF014EF2BF0A8C0A2F054
:10561800A9C0A3F0A6C0A4F0A7C0A5F00CEC30F078
:10562800A8C09EF0A9C09FF01EEC31F00001AF5158
:105638009E25A66FB0519F21A76F1200000194A16B
:1056480028EF2BF02AEF2BF034EF2BF0A8C0A2F0B4
:10565800A9C0A3F0A6C0A4F0A7C0A5F075EC30F0CF
:105668000001ABBF3AEF2BF03CEF2BF042EF2BF0F1
:10567800AAC0AFF0ABC0B0F046EF2BF0000EB06F91
:10568800000EAF6F000EAE6F000EAD6F59EF2BF02E
:10569800000E9F6F200E9E6FA6C0A0F0A7C0A1F0BD
:1056A80034EC2CF00001AD4BAE2BAF51AD5DAE51DB
:1056B800800AAC6FB051800AAC59D8A066EF2BF0C5
:1056C80068EF2BF04CEF2BF094B16DEF2BF06FEFF0
:1056D8002BF079EF2BF0A8C0A2F0A9C0A3F0A6C0C8
:1056E800A4F0A7C0A5F075EC30F0A8C09EF0A9C042
:1056F8009FF075EC31F00001AF519E25A66FB051B7
:105708009F21A76F1200840E00019B25D96EDA6ACB
:10571800000EDA22000EDF6EABA495EF2BF097EFA8
:105728002BF0ABEF2BF0840E9B25D96EDA6A000EB6
:10573800DA22DF8202D8ABEF2BF00500FA6E010106
:10574800A151FD6EA251FE6EFF6AFA501200ABA283
:10575800B0EF2BF0B2EF2BF0C7EF2BF0840E000167
:105768009B25D96EDA6A000EDA22DF8402D8C7EFE9
:105778002BF00500FA6E01019F51FD6EA051FE6EDF
:10578800FF6AFA501200840E00019B25D96EDA6A6E
:10579800000EDA22DF50D8B4D4EF2BF0D6EF2BF07E
:1057A800E5EF2BF002D8E3EF2BF00500FA6E0101CC
:1057B8009D51FD6E9E51FE6EFF6AFA501200E7EF92
:1057C8002BF089EC32F012000001A051A111D8B4DD
:1057D800F0EF2BF0F2EF2BF0FBEF2BF0A051A11123
:1057E800D8A4F9EF2BF0FBEF2BF000EF2CF09E5133
:1057F800FFEC33F033EF2CF020EE04F0A051D92663
:10580800A151DA22DE50DE10D8B40DEF2CF00FEFE4
:105818002CF02AEF2CF020EE04F0A051D926A1514B
:10582800DA2210EE02F0A051E126A151E222DE5068
:10583800E65CE650800A056EDE50800A0558D8B04E
:1058480028EF2CF02AEF2CF033EF2CF020EE02F0AA
:10585800A051D926A151DA22DE2A000EDD2212003B
:105868000001A051A111D8B43CEF2CF03EEF2CF070
:1058780047EF2CF0A051A111D8A445EF2CF047EF29
:105888002CF04CEF2CF09E5101EC34F07FEF2CF013
:1058980020EE04F0A051D926A151DA22DE50DE1004
:1058A800D8B459EF2CF05BEF2CF076EF2CF020EE0B
:1058B80004F0A051D926A151DA2210EE02F0A0512D
:1058C800E126A151E222DE50E65CE650800A056E30
:1058D800DE50800A0558D8B074EF2CF076EF2CF023
:1058E8007FEF2CF020EE02F0A051D926A151DA2248
:1058F800DE2A000EDD221200000E086E000E076E72
:10590800A2EF2CF0075000019E25056E08509F213C
:10591800066E05C0F6FF06C0F7FF000EF86E0F0E04
:10592800F76403D00800F55005D0F6CFE9FFF7CFAC
:10593800EAFFEF50E8EC31F0074A082A0750000167
:105948009E25056E08509F21066E05C0F6FF06C00D
:10595800F7FF000EF86E0F0EF76403D00800F5503D
:1059680005D0F6CFE9FFF7CFEAFFEF500009D8A43A
:10597800C0EF2CF0C2EF2CF086EF2CF01200000ED6
:10598800086E000E076EE5EF2CF0075002010025A7
:10599800056E08500121066E05C0F6FF06C0F7FF28
:1059A800000EF86E0F0EF76403D00800F55005D00E
:1059B800F6CFE9FFF7CFEAFFEF5020EC32F0074AC5
:1059C800082A075002010025056E08500121066EBD
:1059D80005C0F6FF06C0F7FF000EF86E0F0EF7645D
:1059E80003D00800F55005D0F6CFE9FFF7CFEAFF5E
:1059F800EF500009D8A403EF2DF005EF2DF0C9EF03
:105A08002CF012009D9A0E0E00019E6F570E9F6F8C
:105A1800E1EC33F09D98B80E00019E6F610E9F6F08
:105A2800DCEC33F0080EB86E900EAB6E240EAC6E44
:105A3800A00EAF6E010EB06E000E00019E6F680ED4
:105A48009F6FEBEC33F0F20E00019E6F670E9F6FB5
:105A5800E6EC33F0F80E00019E6F670E9F6FF0ECD6
:105A680033F0000E00019A6F000E9D6F000E9C6FC0
:105A7800080EC76F000E9B6F000E0E6E000E0D6EA7
:105A88009D8A1200000EBEEC2EF0680E0201226FF5
:105A9800E40EE82EFED7222FFCD700F0030E50ECC0
:105AA80033F01A0E0201226FF80EE82EFED7222FCD
:105AB800FCD700F0030E50EC33F03A0E0201226FCF
:105AC800230EE82EFED7222FFCD7030E50EC33F01E
:105AD800020E50EC33F0020E50EC33F0080E50EC8E
